:100000000C947A030C9497030C9497030C94970325
:100010000C9497030C9497030C9497030C949703F8
:100020000C9497030C9497030C9495180C94D71781
:100030000C945F210C9497030C9497030C949703F2
:100040000C9497030C9497030C9497030C949703C8
:100050000C9497030C941E210C9497030C94970313
:100060000C9497030C9497030C9497030C949703A8
:100070000C9497030C9497030C9497030C94970398
:100080000C9497030C9497030C9497030C94970388
:100090000C9497030C9497030C9497030C94970378
:1000A0000C9497030C9497030C9497033907390722
:1000B0006C076C07D707F507FF08FF0800087408EE
:1000C00085088508EA151116BF171116BF175D16AA
:1000D0008016BF17751785171223172321231523A1
:1000E0001A231F231D234B244E2451245424572408
:1000F0005A245D241E0F0500047F3F1F64321464E0
:100100003214783C1E1E140A052E004C002A00E111
:1001100000354100001E00140004001D6134004D34
:10012000001F001A0016001B00AE5D2A0020000808
:10013000000700060050002C0021001500090019DE
:10014000004F004A00220017000A00050000006569
:1001500064500001530000000F0000E3004F000155
:1001600053000000070000E20023001C000B0011F8
:100170000000002961240018000D00100052004BFF
:100180000025000C000E0036005100280026001249
:10019000000F0037002F002B0027001300334238D8
:1001A0007130004E002D0031003468E5000151002F
:1001B000002900010001000100010000003A001EBA
:1001C00002200222022E00B85D3B001F0221022302
:1001D000020100B75D3C002F0226022F000100CB78
:1001E0005C3D003002270230000100B65D3E003168
:1001F00002350035020000C45C010001000000016E
:10020000000000CA5C01000100000001000000C302
:100210005C3F005200510024020000B55D40002404
:100220000021001E000100B45D4100250022001FD6
:10023000003700C65C42002600230020002700C7CC
:100240005C430025022E0231002E000100440045CF
:100250000001000100010000000100010001000197
:100260000001000000010001000100010001000187
:100270000001000100EF000100010001000100ED9C
:1002800000EE000100F100010001000100F000019A
:1002900000F2000100010001000100010000000166
:1002A0000001000100000001000000010001000148
:1002B0000000000100000001000100010001000138
:1002C00000000001000100010001000100A900017F
:1002D00000010001000100AC00AA00B6000100010D
:1002E000000100AB00A800010001000100010001B5
:1002F0000001000100005C0100AE000100010000EF
:100300000005010980A101850319012AB700150123
:1003100026B700950175108100C0050C0901A101E7
:10032000850419012AA002150126A0029501751065
:100330008100C005010906A1018506050719E0290C
:10034000E7150025019508750181020507190029A7
:10035000EF1500250195F0750181020508190129A5
:1003600005950575019102950175039101C005017F
:100370000902A1010901A1000509190129081500B7
:1003800025019508750181020501093009311581A2
:10039000257F95027508810609381581257F95010D
:1003A00075088106050C0A38021581257F950175AF
:1003B000088106C0C00660FF0961A101096215003D
:1003C00026FF009520750881020963150026FF00AD
:1003D000952075089102C005010906A101050719BC
:1003E000E029E71500250195087501810295017541
:1003F0000881010507190029FF150026FF00950651
:1004000075088100050819012905950575019102F6
:10041000950175039101C009027400040100A0FA5E
:10042000090400000103010100092111010001225A
:1004300040000705810308000109040100020300D0
:100440000000092111010001222200070583032079
:100450000001070504032000010904020001030153
:10046000020009211101000122470007058203084B
:10047000000109040300010300000009211101002B
:1004800001226D0007058503200001120100020012
:10049000000008973275490100010200012203455E
:1004A00000720067006F0044006F00780020004574
:1004B000005A0020005300680069006E00650000CB
:1004C0000028035A005300410020005400650063D7
:1004D0000068006E006F006C006F006700790020FC
:1004E000004C006100620073000000040309040076
:1004F00001010101010101010102020202020202E5
:1005000002020303030303030303040404040404B7
:10051000040505050505060606060607070707077D
:1005200008080808090909090A0A0A0B0B0B0C0C30
:100530000C0D0D0D0E0E0E0F0F0F101011111112CC
:100540001213131414151516161717181819191A4B
:100550001A1B1B1C1D1D1E1E1F20202122222324AE
:1005600024252626272829292A2B2C2D2D2E2F30ED
:10057000313232333435363738393A3B3C3D3E3F01
:10058000404142434445464748494A4C4D4E4F50EE
:10059000515354555658595A5B5D5E5F61626465AC
:1005A0006668696B6C6D6F7072737577787A7B7D36
:1005B0007E8082838587888A8C8E8F91939596988A
:1005C0009A9C9EA0A2A3A5A7A9ABADAFB1B3B5B7A6
:1005D000BABCBEC0C2C4C6C9CBCDCFD1D4D6D8DB7D
:1005E000DDDFE2E4E7E9EBEEF0F3F5F8FAFDFFFF1B
:1005F000AA7F55402223252628292A2C2D2F303248
:10060000333536383A3B3D3E4042434547494A4CF4
:100610004E5051535557595A5C5E60626466686922
:100620006B6D6F71737577797B7D7F81838587892A
:100630008A8C8E90929496989A9C9E9FA1A3A5A72F
:10064000A8AAACAEAFB1B3B4B6B8B9BBBCBEBFC15B
:10065000C2C3C5C6C7C9CACBCCCDCED0D1D2D2D3E6
:10066000D4D5D6D7D7D8D9D9DADADBDBDBDCDCDCFA
:10067000DCDCDDDDDDDDDCDCDCDCDCDBDBDBDADABD
:10068000D9D9D8D7D7D6D5D4D3D2D2D1D0CECDCC34
:10069000CBCAC9C7C6C5C3C2C1BFBEBCBBB9B8B649
:1006A000B4B3B1AFAEACAAA8A7A5A3A19F9E9C9AD4
:1006B00098969492908E8C8A89878583817F7D7BA2
:1006C00079777573716F6D6B6968666462605E5C83
:1006D0005A5957555351504E4C4A49474543424049
:1006E0003E3D3B3A3836353332302F2D2C2A2928DF
:1006F0002625232211241FBECFEFDAE0DEBFCDBFB7
:1007000011E0A0E0B1E0EAE4F5E502C005900D9249
:10071000A43AB107D9F723E0A4EAB1E001C01D92E1
:10072000AE37B207E1F70E9430090C94A32A0C946B
:100730000000A5E2B0E0EFE9F3E00C94DE27FC0155
:100740008081918123813481232B31F09F3F31F4CB
:1007500091E08F3F19F403C091E001C090E090FD5B
:100760007BC57F0185E0DE01919601900D928A950F
:10077000E1F7D70112962C9189A19AA1222349F081
:100780000E94D024182F682F89A19AA10E94402589
:1007900003C00E940C25182F69A17AA1812F0E9405
:1007A0005F0E8C018091A002882309F44FC0F701ED
:1007B00082818111FEC2E091A601E330A0F481E0C4
:1007C0008E0F8093A601F0E0EE0FFF1FEF51FE4F5A
:1007D000D7018D919C919183808382E08983CE01A2
:1007E00001960E94C919BFEFE3EDF0E3B150E0407C
:1007F000F040E1F700C000008091A601833009F0CD
:10080000D8C21092A601E7EEF1E0A1EEB1E08DEEC4
:1008100091E0318111962C911197321330C03081C3
:100820002C9132132CC0329612968E179F0789F79F
:1008300084E0898381E08093A1028EEF8A83109205
:10084000A002CE0101960E94C919B3C28091A102F3
:100850008823D1F0D70112968C91882311F086E07D
:1008600001C087E08983F70180818A8381818B833E
:100870008EEF8C83CE0101960E94C91905C083E0DA
:1008800089831092A102D9CF033BFDE51F07E9F54B
:10089000D70112968C91882309F486C09091A90102
:1008A00081E0890F8770987F853020F4892B8093B1
:1008B000A90102C09093A9018091A9018770BFEF9F
:1008C0008B9FC001112495958795959587959927BC
:1008D000909389008093880090938B0080938A0086
:1008E00090938D0080938C004091A9015091AA01B2
:1008F0006091AB017091AC018FE090E00E94B02854
:100900008091BC010E94FC224FC0063BEDE51E0712
:10091000B1F028F4053B2DE5120751F040C0073B2C
:100920008DE51807D9F0083B9DE5190749F137C057
:10093000D70112968C91882309F43BC296C1F70126
:100940008281882309F435C20E94C31D81E00E9480
:10095000BF1D21E040E86FEF86E50FC0D70112967A
:100960008C91882309F425C20E94C31D81E00E9456
:10097000BF1D21E04FEF6FEF8CEA0E94981B19C258
:10098000F7018281882309F414C20E94C31D81E00B
:100990000E94BF1D21E04FEF6FEF8BE1EECF0E3ACB
:1009A0002DE5120709F479C180914803882309F4E1
:1009B00088C0D0907202C09066020E94532188576E
:1009C0009C4E9093DF018093DE01F70182818823A2
:1009D00009F47CC08C2D8D298D7909F06DC001152D
:1009E000F5E51F07B0F4011523E5120708F069C00B
:1009F000011580E5180740F4011590E4190790F5FA
:100A0000063E1105B1F55DC00115A2E51A0788F58E
:100A100058C00115B9E51B0750F40115E8E51E079C
:100A200008F04FC00431F5E51F0719F54AC0C801A9
:100A3000905681159042E8F4D70115968C91807FED
:100A4000A9F4812F8F718231B1F028F48230A1F5A1
:100A500081EE90E012C08431A1F1863169F586EE15
:100A600092E10BC0F7018581807F59F1C801992778
:100A700004C0C80102C085EE90E01092470388329E
:100A8000910530F48E319105D0F40497A8F00EC092
:100A90008D32910559F018F48A9789F00DC08C3485
:100AA000910569F08D32924051F006C082E080934A
:100AB00047030E94971003C00E94E92102C00E94D0
:100AC0009710D70112968C91811104C18091720206
:100AD00082720D3C2CE5120709F4C0C008F045C035
:100AE000073CACE51A0709F4A5C0D8F4043CECE5D2
:100AF0001E0709F495C030F4033C2CE5120709F4F5
:100B00006DC06AC1053C9CE5190709F48EC0063C1E
:100B1000ACE51A0709F060C145E45CE16FE47CE1F3
:100B2000A1C00A3CBCE51B0709F48EC078F4083C60
:100B3000FCE51F0709F483C0093C2CE5120709F006
:100B40004BC148E35CE16BE27CE18CC00B3C9CE573
:100B5000190709F47EC00C3CACE51A0709F03CC14A
:100B60004FEB5AE161ED7AE17DC0023DBCE51B0728
:100B700009F483C0A0F40F3CFCE51F0709F477C01B
:100B800008F473C0003D8CE5180709F473C0013DFB
:100B90009CE5190709F020C16EE089E07BC0053DA6
:100BA000ACE51A0709F46FC060F4033DECE51E07DD
:100BB00009F466C0043DFCE51F0709F00DC188E19A
:100BC00066C0063D2CE5120709F460C00F358DE5BF
:100BD000180709F001C16AE285E25CC08091420316
:100BE00080FF1BC08E7F809342036091420370910F
:100BF000430380914403909145030E94AC1A1092E4
:100C0000B7029FEFA0E7B2E09150A040B040E1F7FB
:100C100000C000000E94F519CCC00E94C31DC9C0CD
:100C20004CEC5DE166ED7DE11DC046ED5DE16CECF7
:100C30007DE118C04FE45CE165E47CE113C04BE268
:100C40005CE168E37CE10EC041E15CE16EE17CE1E6
:100C500009C04EE15CE161E17CE104C041ED5AE193
:100C60006FEB7AE10E942A22A4C081E010C065E007
:100C700082E010C068E086E00DC064E18FE00AC049
:100C800067E185E107C062E289E104C083E20E9476
:100C9000BF1D8FC00E9417228CC0D70112968C9165
:100CA000882309F486C080914803882319F00E94A4
:100CB000E9217FC0109272020E948A100E94532183
:100CC00088579C4E9093DF018093DE0181E08093F2
:100CD00048036FC00C35EDE51E0709F464C060F4ED
:100CE00001152CE51207A9F00F3D8CE5180709F056
:100CF00073C00E9414104CC00E359DE5190709F40D
:100D00004AC008F452C0093ABDE51B0709F440C0C7
:100D100063C0109272020E94F425EFEFF4E32CE01E
:100D2000E150F0402040E1F700C00000F89481E07D
:100D30008093E00080E28093D8001092C9008FE198
:100D40009EE40197F1F700C000001DBA1092680000
:100D50001CBC10BE1FBA10927A0010926E00109246
:100D60006F0010927100109272001092C9001092E0
:100D7000BC0014B817B81AB81DB810BA1092BC004D
:100D800015B818B81BB81EB811BA0C94003F11C0A2
:100D90000E94E4220EC08091550382FB882780F9CF
:100DA00091E0892703C081E001C080E00E94091121
:100DB00013C080914502877009F44EC2D701129684
:100DC0008C91882309F448C28091550382FF44C264
:100DD00082E00E94EC1040C2F70182810081118103
:100DE000882349F0C8010E94D024D82E682FC8015A
:100DF0000E94402504C0C8010E940C25D82EB801CD
:100E00008D2D0E945F0E0E94780EB82E192F982EFD
:100E1000F7010281A580A2949FE0A922809145025A
:100E20008770B9F00023A9F0812F807F803421F0F2
:100E300080E28B0D883068F08091550382FF09C0F5
:100E400082E00E94EC10809145028770DD24D394EB
:100E50008111D12CC12EC2948FE0C8228C2D90E03C
:100E60008C30910508F0CBC1FC01EA5AFF4F0C947D
:100E70005329812F807F1F70882311F01295107FD6
:100E80000023B9F0112309F4A8C180E28B0D88304A
:100E900010F0911006C080917202182B109372020C
:100EA00005C080914703182B109347030E949710A9
:100EB00094C18B2D0E941926112309F4A0C180E250
:100EC0008B0D883080F1992071F110958091470346
:100ED0001823109347032AC0812F807F1F70803210
:100EE00011F01295107F8B2D992021F0F1E09F16C3
:100EF000D9F147C08091550382FD1BC0002369F0E2
:100F0000112339F080917202182B109372020E9403
:100F1000971080E00E944E2672C180E00E94192640
:100F2000112309F46CC1812F0E9490100E94971028
:100F300066C1002381F080916602AA2051F021E071
:100F4000A21207C0182B181709F459C11093660292
:100F500056C1812B10C0AA2021F081E0A81609F407
:100F60004EC10E948A101FC0002341F091E09A15E3
:100F700008F445C1812F0E940F2641C1A1103FC135
:100F800012C0002319F0AA20A9F327C1AA2059F002
:100F9000893309F031C1AFEFB7EEE3E0A150B040C3
:100FA000E040E1F727C1812F0E94082628C1812F48
:100FB00086958695837019F0813061F020C10023F9
:100FC00021F08B2D912F937002C080E090E00E9461
:100FD000C6211BC1002321F08B2D912F937002C0DD
:100FE00080E090E00E94B02110C18B2D002319F009
:100FF0000E94131D02C00E94591C0E94E11D05C1E0
:10100000812F8370A9F50111FEC04B2D42954695A5
:101010004770440F440F8B2D8F7090E09C01042E7D
:1010200001C0220F0A94EAF7B4FE08C08FE090E0F6
:1010300001C0880F4A95EAF7809501C080E01695B7
:1010400016951370123069F088F490916702113090
:1010500019F0822B892302C0922B892B0E94B8257C
:10106000D2C0822B909167028927F8CF822BF6CFCE
:10107000002319F0812F817001C08695882309F41F
:10108000C2C04B2D429546954770440F440F8B2D9F
:101090008F7090E09C01042E01C0220F0A94EAF7A1
:1010A000B4FE08C08FE090E001C0880F4A95EAF7CF
:1010B000809501C080E0169516951370123059F096
:1010C00078F49091BC01113019F0822B892309C06A
:1010D000922B892B06C0822B9091BC01892701C0DD
:1010E000822B0E9475258FC01F70002339F0812F3D
:1010F0000E94AC258B2D0E940F2685C08B2D0E944F
:101100000826812F0E949F257EC08B2DF2EF9F160F
:1011100069F1F91538F020EF921659F091EF991610
:1011200001F157C0A3EF9A1641F1B4EF9B16A9F055
:1011300050C0002369F0A11062C01F7181E090E0EF
:1011400001C0880F1A95EAF79091BC0189271FC04A
:10115000E1E0EA1508F453C0F0CF8091550382FD19
:1011600019C0002329F0812F8F7126C00023D9F3E5
:10117000812F8F710E949F2542C0002339F01F717B
:1011800081E001C0880F1A95EAF701C080E00E9453
:10119000752535C0002399F01F71812F0E94AC2561
:1011A0008091550382FF07C0F8E01F9FC001112402
:1011B000836080934502812F0E94AC2520C081E08E
:1011C0000E94EC1021E02A15D0F482E00E94EC107D
:1011D00016C0002321F0AA2031F28B2D9BCEAA202D
:1011E00039F2893349F48FEF97EEA3E081509040B4
:1011F000A040E1F700C000008B2D0E94192688EF67
:101200008C0D843010F40E94DC21DD20A9F0809147
:10121000450280FD11C0F70112828595859585955F
:101220000E94AC25C7010E949903809145028595D3
:10123000859585950E949F2585E0F701DE01119631
:1012400001900D928A95E1F709811A81C8010E94E7
:101250000C25B8010E945F0EA596EBE00C94FA27CE
:10126000ACE5B0E0E6E3F9E00C94DA2785B78068F6
:1012700085BF85B7806885BF84B7877F84BF0FB679
:10128000F894A89580916000886180936000109226
:1012900060000FBE90E080E80FB6F8948093610084
:1012A000909361000FBE8AE19EE09093A501809328
:1012B000A4010E941B180E943A188091E2008460E9
:1012C0008093E20078948091A2028823A1F010918B
:1012D000E9001F709091EC00892F817090FD80E8EB
:1012E000182B1092E9008091E80083FD0E940515FB
:1012F0001F701093E90082E084BD93E095BD9AEFE2
:1013000097BD80936E000E94262390E09093190170
:10131000809318010E9461240E94A724EDEAF1E065
:10132000A1ECB1E011921D9221E0EB3BF207D1F765
:101330008EE090E00E9468298093A7019093A80115
:10134000FC010E961192E817F907E1F789EA8093FC
:10135000800089E08093810024982C983F988AB17E
:101360008F7C8AB96E98479A8BB180638BB9769AD5
:101370008FE090E00E9482286093A9017093AA01F7
:101380008093AB019093AC0167703FEF639FB00116
:1013900011247595679575956795772770938900E2
:1013A0006093880070938B0060938A0070938D0027
:1013B00060938C000E949D2380E090E00E9488282A
:1013C000883E9E4F11F00E94141082E090E00E942F
:1013D0007A288093CF0184E090E00E947A28182F29
:1013E00082E290E00E947A28212F30E0382B30935F
:1013F00055032093540383E090E00E947A280E94D2
:10140000B8258091BC010E94FC228091BB01811112
:1014100036C080E090E00E948828883E9E4F21F0F0
:101420000E9414100E94E31A88E090E00E94822833
:101430006093420370934303809344039093450366
:101440006E7F71F40E94E31A88E090E00E94822887
:101450006093420370934303809344039093450346
:101460000E94991A1092B7028091420380FF04C033
:1014700060E086950E94841D81E08093BB0180918D
:10148000BC010E94FC228AE091E090934C0380937F
:101490004B0388E1E82EF12C9FECC92E91E0D92E68
:1014A0008091A202853009F086C000E4B02EAA2403
:1014B000A39400E112E18091A202853009F064C09A
:1014C0008091A202843009F43DC01092B70280914D
:1014D000BE01811116C0A092BE0180914203982FD7
:1014E00091709093BD018E7F80934203FFEF20E7C0
:1014F00032E0F15020403040E1F700C000000E948F
:10150000F51910924F030FB6F894A895E092600079
:101510000FBEB092600083B7817F846083BF83B7C2
:10152000816083BF7894889583B78E7F83BF0FB621
:10153000F894A89580916000886180936000109273
:1015400060000FBE80919602882309F4B4CF0E94F8
:10155000262390E090931901809318010E94612442
:101560000E94A724E1ECF1E0119241E0EF3CF40786
:10157000D9F70E941F13E1ECF1E08191811139C389
:10158000CE16DF06D1F797CF109272020E94F42593
:101590000E94DC211092BE018091BD01882349F098
:1015A0008091420381608093420360E086950E94AF
:1015B000841D0E946E1D0E941F1310EDA12E11E0CC
:1015C000B12EA1ECB1E0F50191918D91892791E0C7
:1015D000EE3DF90719F08823B9F332C0811130C00C
:1015E0000E9453218C018091BF019091C001081786
:1015F000190709F473C08FEF64968FAF64976596EF
:101600008FAF659766961FAE66970E9453218160E3
:10161000782F68969FAF8EAF689764964FAD6497AA
:1016200065965FAD659766966FAD669768968FAD68
:1016300068970E9431221093C0010093BF014EC0F1
:10164000B1EC8B2EB1E09B2E10E0F40151904F01D4
:10165000F5016080652481F100E077247394862D84
:10166000872121F169960FAF69976A961FAF6A9734
:1016700091E0852D872109F490E06B969FAF6B97E1
:101680000E9453218160782F6D969FAF8EAF6D972A
:1016900069964FAD69976A965FAD6A976B966FAD25
:1016A0006B976D968FAD6D970E9431220F5F770C0F
:1016B0000630A9F6F50150821F5FFFEFAF1ABF0A8F
:1016C0001E3009F0C2CF8FB7F8944091500350916B
:1016D000510360915203709153038FBF809148036F
:1016E000882369F00E9453212091DE013091DF01AF
:1016F000821B930B8F3F9F4710F40E94E92180913A
:10170000B702882309F4A5C08091B602E091420394
:10171000E695E81BE093B202823059F4F0E0EB5F0B
:10172000FE4FE4910E2F10E0AFEDAA2EA0E2BA2EEC
:101730006BC0863059F4F0E0EE5FFE4FE4910E2F5F
:1017400010E0FFECAF2EF0E2BF2E5EC0893061F4F6
:10175000E695F0E0E150FF4FE4910E2F10E0EBE64C
:10176000AE2EE0E2BE2E50C08F3061F4E695F0E080
:10177000E450FF4FE4910E2F10E075E0A72E70E2C9
:10178000B72E42C0853159F4F0E0E750FF4FE491A5
:101790000E2F10E065EBA62E6FE1B62E35C0883116
:1017A000F9F0833249F4E7EFF0E00591149155E93F
:1017B000A52E50E2B52E28C08432C9F08532F1F44E
:1017C0008E2F63E00E942529E92FF0E0EC50FF4FB7
:1017D000E4910E2F10E04CE6A42E4EE1B42E14C07E
:1017E00008E210E03AE3A32E3FE1B32E0DC004EF70
:1017F00011E022E0A22E2FE1B22E06C000ED17E08C
:101800009BE0A92E9EE1B92E8091B302882361F05E
:101810001092B3020E9453219093B1028093B002C0
:101820001092B5021092B4020E945321E091B002CE
:10183000F091B1028E1B9F0B8F3F9F4750F40E0F0C
:101840001F1F1093B1020093B00280EB92E0F501EC
:10185000099585E0EAEAF2E0DE01119601900D9229
:101860008A95E1F71092AB021092AC021092AD0291
:101870001092AE021A81111104C08B81882309F4E1
:1018800052C08091A8029091A9020E9444219C011B
:101890009091A402992309F4C4C12531310508F4BB
:1018A00042C09F3F19F09F5F9093A402112361F003
:1018B0000E94F01C111614F491E001C09FEF899F63
:1018C000802D11248093AB021B81112361F00E94B3
:1018D000F01C111614F491E001C09FEF899F802D38
:1018E00011248093AC023091AB023323E1F02091BC
:1018F000AC022223C1F045EB3403C001112499232B
:1019000019F09093AB0203C081E08093AB0235EBFA
:101910002303C0011124992319F09093AC0203C052
:1019200081E08093AC021C81111104C08D81882359
:1019300009F452C08091A6029091A7020E9444210E
:101940009C019091A302992309F46FC125313105BF
:1019500008F442C09F3F19F09F5F9093A3021123A8
:1019600061F00E94D01C111614F491E001C09FEFA9
:10197000899F802D11248093AD021D81112361F078
:101980000E94D01C111614F491E001C09FEF899FB2
:10199000802D11248093AE023091AD023323E1F00B
:1019A0002091AE022223C1F045EB3403C001112483
:1019B000992319F09093AD0203C081E08093AD02AA
:1019C00035EB2303C0011124992319F09093AE0243
:1019D00003C081E08093AE0245E050E0BE016F5F3E
:1019E0007F4F8AEA92E00E94962A892BA9F480917F
:1019F000AB0281110FC08091AC0281110BC08091AC
:101A0000AD02811107C081E09091AE02911103C037
:101A100080E001C081E080FD0E94E11D85E0FE01C3
:101A20003196AAEAB2E001900D928A95E1F70E9400
:101A3000DC219091E001891769F08093E0018FB774
:101A4000F89440915003509151036091520370916A
:101A500053038FBF8091A202843009F021CD80937F
:101A6000E9008091E80082FF1BCD8091E80085FFAE
:101A700022C00E946C1981111CC000E210E05E01BE
:101A800041E2A40EB11C08C08091F100F5018193E0
:101A90005F010150110969F08091E80085FDF4CFE4
:101AA0008091E8008B778093E8000E946C1988236E
:101AB00099F391E001C090E08091E8008B778093EA
:101AC000E800992309F4ECCC89A18130E9F158F1BF
:101AD000823021F0843009F480C0E2CC8BA19AA13D
:101AE0009093E1018093E2018DA19CA19093E30189
:101AF0008093E4018FA19EA19093E5018093E6017C
:101B000042E150E063E270E0CE018F5B9F4F0E94A4
:101B10006A2884E0898381E08093A1028EEF8A8322
:101B20001092A0020CC019828CE0E8E2F1E0DE0124
:101B3000129601900D928A95E1F78EEF8D87CE0176
:101B400001960E94C919ACCC07EE11E08DEEA82ECB
:101B500081E0B82E0E94F721F801819391938F01C3
:101B6000AE16BF06B9F781E089839091E7019A83A9
:101B70009091E8019B839091E9019C839091EA0107
:101B80009D839091EB019E839091EC019F839EEF4A
:101B900098878093A002CE0101960E94C91942E164
:101BA00050E063E270E0CE0101960E946A28FE01D7
:101BB000319682E183301CF09189928B01C0128AA8
:101BC000815031978F3FB1F742E150E063E270E01E
:101BD000CE0101960E948E2863CC8091A1028823B9
:101BE00009F45ECC80E00E9475258AA10E94AC2594
:101BF00057CC09BD19BD09B400FEFDCF8091D800B6
:101C00008F7D8093D8008091E00082608093E00017
:101C10008091E00081FDFCCF109272020E94F425B9
:101C20004ACC232B09F03FCE7ECE2139314008F03B
:101C300093CED2CE80E008959091540392FF0DC0D0
:101C4000282F2871283019F4877F846006C0282F38
:101C50002471243011F48B7F886093FF0DC0282FEE
:101C60002871283119F4877E846106C0282F2471D9
:101C7000243111F48B7E88612091550320FF0DC023
:101C8000382F3871383019F4877F816006C0382FBB
:101C90003171313011F48E7F886021FF0DC0282F03
:101CA0002871283119F4877E816106C0282F21719F
:101CB000213111F48E7E886194FD877E08957E30F7
:101CC000A0F4663090F494E5899FF001112486E039
:101CD000789FE00DF11D1124E60FF11DEE0FFF1F9F
:101CE000E75FFE4F85919491089580E090E008951C
:101CF000CF93DF938238910569F1B0F48133910578
:101D000009F477C048F48932910509F469C08A3230
:101D1000910509F473C092C08533910509F45BC045
:101D200089339105B9F08AC0833E910591F138F469
:101D3000803E9105D1F0823E910531F17FC0863E13
:101D40009105D9F1873E9105E9F1843E910509F0AD
:101D500075C028C02091540320FD5BC021FD59C0EF
:101D60002091550323FD61C069C08091540380FD1B
:101D70004AC08091550380FF4CC08091540384FD7C
:101D80004EC183EE90E04DC18091540382FF3EC06E
:101D9000F4CF8091540382FD39C08091550380FDBA
:101DA00038C0EBCF8091550381FF39C08091540337
:101DB00084FD35C187EE90E034C18091540383FFE8
:101DC0002BC0F4CF8091540383FD26C0809155032E
:101DD00081FD25C0EBCF8091540385FD26C022C034
:101DE0008091540385FD1EC08091550383FF1DC063
:101DF0000AC08091540386FD1BC01DC0809154030E
:101E000086FD19C015C089E390E00BC182EE90E019
:101E100008C180EE90E005C186EE90E002C184EE3C
:101E200090E0FFC085E390E0FCC089E290E0F9C05B
:101E30008AE290E0F6C081E390E0F3C0811531E5DD
:101E4000930708F061C0811520E59207B0F09C016E
:101E50002370332741E050E002C0440F551F2A95FC
:101E6000E2F7282F2695269580E2289F90011124DD
:101E7000CA01822B932B9D68D4C0883E910568F5DA
:101E8000803E910508F0CDC0883A9105B8F4853AB6
:101E9000910548F0855AE82FF0E0EC5CFE4F808118
:101EA00090E09064BEC08130910509F4B5C008F49B
:101EB000B6C08430910508F4B2C0B3C08F3B910521
:101EC00008F0ADC0885AE82FF0E0EE0FFF1FE95C84
:101ED000FE4F808191819464A4C0811530E2930704
:101EE00058F4811521E0920708F09BC08D3E9105C2
:101EF00008F495C0906595C0811530E4930708F407
:101F00008EC09F70906A8DC0811525E5920708F0FC
:101F100042C0811534E5930728F0982F8827846FF5
:101F2000906A7FC0811523E59207B0F09C01237071
:101F3000332741E050E002C0440F551F2A95E2F7D5
:101F4000282F2695269580E2289F90011124CA010A
:101F5000822B932B9A6865C0811532E5930728F48C
:101F6000982F8827816F906A5CC09C01237033276B
:101F700041E050E002C0440F551F2A95E2F7282F98
:101F80002695269580E2289F90011124CA01822B74
:101F9000932B9C6846C0EC01C11589E5D807B0F4C5
:101FA000C11528E5D20728F09C2F8827806F906AFA
:101FB00038C0C11536E5D30790F58C2F0E941C0E52
:101FC0008F7190E0982F882790622BC0C1158AE509
:101FD000D80790F48C2F8F700E941C0E94E0D69539
:101FE000C7959A95E1F7CF70D0E0DC2FCC27D06968
:101FF0009E01282BC90115C0CE0190568115904233
:1020000070F48D2F8F710E941C0E282F2F71CE011E
:1020100099279062922B05C081E090E002C080E099
:1020200090E0DF91CF91089568EE7EEF80E090E040
:102030000E94BC2860E082E090E00E949E2860E060
:1020400083E090E00E949E281092670260E084E0A6
:1020500090E00E949E2864E082E290E00E949E2828
:1020600060E085E090E00E949E2860E086E090E0DD
:102070000E949E286FEF87E090E00E949E2840E03B
:1020800050E0BA0188E090E00E94B02860E08DE066
:1020900090E00E949E2840E050E0BA0188E190E084
:1020A0000E94B02860E087E190E00E949E2840E016
:1020B00050E0BA018CE190E00E94B02860E070E04E
:1020C00080E290E00E94BC2840E050E0BA0188E144
:1020D00090E00E94B0281092A9011092AA011092DB
:1020E000AB011092AC0184E08093A9014091A90159
:1020F0005091AA016091AB017091AC018FE090E02A
:102100000E94B02840E050E0BA0183E190E00E94D4
:10211000B028089580916602811110926602089598
:102120008095909172028923809372020895909114
:10213000720280914703982B9093ED018091660283
:102140008823D9F0892B8093ED0180911601882393
:1021500031F08091540387FF02C08EE101C086E018
:10216000EFEEF1E090E0815028F021912223D9F3A5
:102170009F5FF9CF91110E948A1040E250E066E41F
:1021800072E08DEE91E00E94962A892B21F180E287
:10219000EDEEF1E0A6E4B2E001900D928A95E1F750
:1021A000E0914B03F0914C033097A9F08091160118
:1021B000882359F08091540387FF07C08091ED0177
:1021C0008093EE0186E08093ED010280F381E02DA3
:1021D0008DEE91E009950895209145028095822326
:1021E00080934502982F977099F430E0482F082E7D
:1021F000000C550B2417350759F09091550392FFA9
:1022000007C08595859585950E949F25109245026A
:102210000895CF93C0915503C2FB992790F9981761
:1022200091F080FBC2F9C09355036091540384E0A0
:1022300090E00E949E286C2F82E290E00E949E28EF
:1022400082E00E94EC10CF91089580914402909119
:102250001302891719F08F5F8770FBCF08950F93D2
:102260001F93CF93DF938091120282958F7009F0B4
:102270005AC080910F02882309F455C0809144020E
:102280001091130260910D0270910E02C091100224
:10229000D091110291E06F3F09F090E0292F06E004
:1022A000811709F440C0209721F07F3F21F030E0F2
:1022B00003C031E001C0322F90E030FD31C0089FF3
:1022C000F001099FF00D1124DF01AC5EBD4F1196A6
:1022D0003C911197371324C03C91361321C01296BC
:1022E0003C91129731111CC013964D915C9114973B
:1022F0004C1B5D0B483C510598F4809112028F7085
:10230000806180931202E75EFD4F80818F70806153
:1023100080838DE092E00E9499030E94251103C002
:1023200001968770BDCFDF91CF911F910F910895D6
:10233000A1E1B0E0EEE9F1E10C94DE278C0185E04B
:10234000F801DE011D9601900D928A95E1F7F801E2
:10235000E28090910D0260910E0240911002509126
:1023600011024115510531F06F3F31F481E09F3F7B
:1023700019F403C081E001C080E0F82FF1709F2EB6
:1023800080FD1BC1F80130812181C380D4808DE0A4
:10239000A82E82E0B82EF0900F02F601E41BF50B98
:1023A000FF2009F4C7C080911202E83CF10508F053
:1023B00092C0482F407F09F051C0621311C093139F
:1023C0000FC0FE2CE1100CC08F7080618093120250
:1023D000C5010E94990380911202F80185832AC1E8
:1023E000C114D10431F02F3F31F481E03F3F19F4A3
:1023F00003C081E001C080E080FD03C081E08E2544
:1024000002C080E090E0F82FF170FF2E80FF1CC02A
:10241000809144024091130256E0841709F4E8C009
:1024200090E0589FF001599FF00D1124EC5EFD4F94
:102430006181261306C06081631303C06281E612C6
:1024400003C001968770E9CFFE2CEE2009F4F2C09C
:102450008091120281608093120249C0621306C00B
:10246000931304C0E11002C0F80186C0C8010E94A5
:10247000BD25882351F1EE2041F120911202822FD7
:1024800082958F7090E0029774F080910D02909188
:102490000E0298878F831986DB86CA862C87CE0129
:1024A00007960E94990386E0F801ADE0B2E0019042
:1024B0000D928A95E1F70E942F110AC06217C9F0A8
:1024C000C8010E94BD2581111EC0C8010E94990348
:1024D000FF24F394AFC0482F407F81F78DE092E056
:1024E0000E94990386E0F50111928A95E9F7F12C93
:1024F000A1C09313E5CFE110E3CFF8018583C801B4
:102500000E94990354C0EE2001F320911202822F01
:1025100082958F7090E0029734F280910D02909135
:102520000E029A8389831B82DD82CC822E83CE01A8
:102530000196B7CFE83CF105D0F5FE2CEE2029F24C
:10254000621327C0931325C02091120220FD18C0EA
:10255000822F82958F70482F50E04115510581F0F0
:10256000F80125834F30510541F08F5F982F9295E8
:10257000907F822F8F70892B8583C8010E949903D9
:1025800086E0F801ADE0B2E001900D928A95E1F7A6
:1025900051C0C8010E94BD25811185CF80911202D2
:1025A000816080931202C8010E94990343C086E0B3
:1025B000F50111928A95E9F73DC0EE2009F485CF27
:1025C000C8010E94BD25F82E882309F47ECF86E03D
:1025D000F801ADE0B2E001900D928A95E1F78091AB
:1025E0000D0290910E020E94FF240E942F1122C022
:1025F0003D872E878D859E850E94FF24292F229559
:102600002F70223028F49F7039F0811105C00BC063
:10261000243028F49F7049F4805E883020F0C8018F
:102620000E9499039F2CF92C05C0F8019581907F99
:1026300099F7F9CF8F2D6196EBE00C94FA27A0E083
:10264000B0E0E5E2F3E10C94E1278091180190916C
:102650001901892BB9F0809168028F5F809368021D
:10266000811110C00E94262390E09093190180935D
:102670001801892B39F40E949D2381E08093170172
:102680000E94F5190DEA11E07801D0E0C0E087E082
:10269000C82ECC0E8C2F0E940D248C2D0E940D2450
:1026A0008C2F0E9470248F73F7019081891721F07D
:1026B0008083DD24D39401C0D12C8C2D0E94702402
:1026C0008F73F7019781891719F0878381E001C023
:1026D00080E0D82ADD290E946124CF5FFFEFEF1A46
:1026E000FF0AC730A1F610926D02C0916C02CC2394
:1026F00009F4C4C00E94532120916A0230916B02F8
:10270000AC01421B530B9A0190936B0280936A02B7
:102710004F3F510509F018F4452B19F102C02FEF76
:1027200030E010926C0210926902E091A701F091E2
:10273000A801AF01425F5F4F90E030E080818823C5
:1027400041F0281718F010829C2F03C0821B808351
:102750003C2F3196E417F50789F730936C0290937C
:102760006902DD2309F47BC0E091A701F091A80183
:1027700080916D0290916C02A1ECB1E0AF01425FDB
:102780005F4F6EE1E80128813C91321779F030818A
:1027900031110CC060832C9398819227282F30E050
:1027A000292B81E0232B09F480E091E031961196EA
:1027B0000F5F1F4FE417F50729F780936D02909381
:1027C0006C02C0916D022091A00280916F029091E5
:1027D00070022223C9F1892B31F425982D9826986F
:1027E0002E9827982F9880916F0290917002917087
:1027F000892B79F480916E02882319F026982E98FF
:1028000002C0269A2E9A90916E0281E089278093C9
:102810006E0280916F02909170028130984750F063
:102820001092A0028091BC010E94FC2210927002C2
:1028300010926F0280916F029091700201969093B6
:10284000700280936F021EC0892BE1F0109270021B
:1028500010926F028091BC010E94FC2213C081E0A3
:1028600090916902992309F4ACCF81117DCF0E9428
:10287000532190936B0280936A0276CFD111F7CFE8
:1028800080E0EECF8C2FCDB7DEB7E8E00C94FD27CB
:102890008091980287FF11C08091E80082FD05C0F9
:1028A0008091A2028111F8CF11C08091E8008B774E
:1028B0000BC08091A202882349F08091E80080FF3C
:1028C000F8CF8091E8008E778093E8000895982FE4
:1028D000973068F59093E900981739F07091EC0003
:1028E0002091ED005091F00003C0242F762F50E08E
:1028F00021FD02C09F5FECCF3091EB003E7F309313
:10290000EB003091ED003D7F3093ED003091EB0016
:1029100031603093EB007093EC002093ED00509306
:10292000F0002091EE0027FDE5CF80E008958F7044
:102930008093E90081E0089520919E0230919F02EA
:102940002617370748F06115710539F42091E80022
:102950002E772093E80001C0B901FC0120E0611549
:10296000710579F18091A2028823F1F18530F1F1AE
:102970008091E80083FD3CC08091E80082FD2EC07C
:102980008091E80080FFEBCF2091F3008091F2006E
:1029900090E0922B6115710551F08830910538F463
:1029A00021912093F100615071090196F3CF21E04C
:1029B000089709F020E08091E8008E778093E80086
:1029C000CECF2111CFCF0AC08091A202882361F01F
:1029D000853061F08091E80083FD0AC08091E800B5
:1029E00082FFF2CF80E0089582E0089583E00895A9
:1029F00081E008950895BC0184E00E94F3200895C9
:102A0000BC0183E00E94F3200895AAE2B0E0EBE06D
:102A1000F5E10C94E627E8E9F2E080EA92E0209103
:102A2000F10021938E179F07D1F78091990283308F
:102A300009F463C030F4813071F0823009F49FC032
:102A4000B6C08A3009F48BC08B3009F46EC089306F
:102A500009F0ADC020C080919802813A09F0A7C06A
:102A60008091E800877F8093E80080919C0290919C
:102A70009D02892B21F460E285E792E003C060E0CB
:102A800080E090E070E00E949C148091E8008B77D9
:102A90008093E8008CC080919802813209F087C051
:102AA00080919C0290919D02009719F0039709F084
:102AB0007EC08091E800877F8093E8008091E800E5
:102AC00082FD05C08091A2028111F8CF70C02091D3
:102AD000F3008091F20090E0922B029731F4809104
:102AE000F100813011F0863021F48091F100809363
:102AF00074028091E8008B7756C080919802813AE9
:102B000009F055C080919C0290919D02892B09F09B
:102B10004EC08091E800877F8093E8008091E800B4
:102B200080FFFCCF8091160139C0809198028132DC
:102B3000F1F580919C0290919D02892BC1F58091C5
:102B4000E800877F8093E8000E94481480919A02F1
:102B500080931601109272020E94F42528C0809181
:102B60009802813221F58091E800877F8093E80008
:102B70000E94481480919B028093730218C0809138
:102B80009802813AA1F48091E800877F8093E80061
:102B90008091E80080FFFCCF809173028093F10068
:102BA0008091E8008E778093E8000E94481480911D
:102BB000E80083FFE4C18091980290919902492F27
:102BC00050E04A30510508F0DAC1FA01EE59FF4FE2
:102BD0000C945329803821F0823809F0D0C108C004
:102BE0008091950290919602992389F082600FC09E
:102BF00080919C028F70873008F0C1C18093E900FA
:102C00008091EB0085FB882780F91092E900909174
:102C1000E800977F9093E8008093F1001092F10014
:102C200070C1282F2D7F09F0AAC1882319F08230A6
:102C300061F0A5C180919A02813009F0A0C1933062
:102C400009F080E0809396022EC080919A02811153
:102C50002AC080919C028F702FEF280F263008F039
:102C60008EC18093E9002091EB0020FF1CC09330BF
:102C700021F48091EB00806214C09091EB00906190
:102C80009093EB0021E030E0A90102C0440F551FF2
:102C90008A95E2F74093EA001092EA008091EB00F7
:102CA00088608093EB001092E9008091E800877FB4
:102CB0008093E8000E94481462C1811160C11091A4
:102CC0009A021F778091E3008078812B8093E30044
:102CD0008091E800877F8093E8000E9448148091EB
:102CE000E80080FFFCCF8091E30080688093E300E0
:102CF000111102C082E001C083E08093A2023FC1B3
:102D00008058823008F03BC120919A0230919B029A
:102D10002C3D53E0350779F583E08A838AE2898385
:102D20004FB7F894DE01139620E03EE051E2E32F26
:102D3000F0E050935700E49120FF03C0E295EF705C
:102D40003F5FEF708E2F90E0EA3010F0C79601C021
:102D5000C0968D939D932F5F243149F74FBF80918B
:102D6000E800877F8093E8006AE270E0CE01019678
:102D70000E949C14B4C080919C0290919D02432FAC
:102D8000552743305105A9F068F44130510509F445
:102D900005C14230510509F0F2C084E790E0E7E157
:102DA000F4E04BC04132510529F14232510589F11D
:102DB000E6C0C901992781309105A1F058F002972A
:102DC00009F0DDC0EDE9F4E0E4918E2F90E0EDE94B
:102DD000F4E030C0EBEEF4E0E4918E2F90E0EBEE07
:102DE000F4E028C0E1ECF4E0E4918E2F90E0E1EC17
:102DF000F4E020C08430910508F0C1C0880F991F0D
:102E0000FC01EF58FE4F0190F081E02D89E090E049
:102E100014C08430910508F0B2C0FC01EE0FFF1F12
:102E2000E759FE4F0190F081E02DDC01AB59BE4F18
:102E30008C9190E0009709F4A2C02091E800277FD0
:102E40002093E80020919E0230919F0228173907B5
:102E500008F4C90140E0009789F12091A2022223E1
:102E600009F43DC02530D9F12091E80023FD37C099
:102E70002091E80022FD2FC02091E80020FFEBCF39
:102E80004091F3002091F20030E0342B009759F08C
:102E90002830310540F444914093F1003196019778
:102EA0002F5F3F4FF3CF41E02830310509F040E07C
:102EB0002091E8002E772093E800CDCF4111CDCFAF
:102EC0000AC08091A202882351F0853041F08091A0
:102ED000E80083FD04C08091E80082FFF2CF80917A
:102EE000E8008B778093E8004AC0803809F047C03B
:102EF0008091E800877F8093E8008091970280931B
:102F0000F1008091E8008E77D3CE811138C0809196
:102F10009A0290919B02992702978CF58091E80084
:102F2000877F8093E80010919A02109397020E9485
:102F30004814111106C08091E30087FD02C081E0B2
:102F400001C084E08093A20242E061EC81E00E9433
:102F5000671442E061EC82E00E94671442E261EC97
:102F600085E00E94671442E261EC83E00E946714EE
:102F700042E260EC84E00E9467148091A20280919A
:102F8000E80083FF10C08091E800877F8093E8000D
:102F90008091EB0080628093EB0005C082E190E0BD
:102FA000EBE8F4E04ACFAA96E3E00C9402281F92E3
:102FB0000F920FB60F9211242F933F934F935F936D
:102FC0006F937F938F939F93AF93BF93CF93DF9331
:102FD000EF93FF93C091E900CF708091EC00D82F60
:102FE000D17080FDD0E81092E9008091F000877FD9
:102FF0008093F00078940E9405151092E90080916A
:10300000F00088608093F000CD2BCF70C093E90072
:10301000FF91EF91DF91CF91BF91AF919F918F91F0
:103020007F916F915F914F913F912F910F900FBEC4
:103030000F901F901895E8EDF0E080818E7F8083DF
:103040001092E2001092DA001092E100A0EEB0E0DF
:103050008C9181608C9380818F77808319BCA7EDE0
:10306000B0E08C918E7F8C9380818F7E80831092D4
:1030700071020895A0E0B0E0E0E4F8E10C94E127EB
:10308000C8EDD0E088818F7E8883E7EDF0E0808115
:103090008160808384E082BF81E0809371028881B7
:1030A0008E7F888302EE10E0F80110821092DA0021
:1030B00081EEC82ED12CF601108288818F7788830B
:1030C00088818068888388818F7D888319BC10926D
:1030D000A20210929702109296021092950290EE20
:1030E000E92EF12CF70180818B7F808388818160BC
:1030F000888342E060E080E00E946714F6018081EE
:103100008E7F8083F80180818160808380818860E8
:103110008083F70180818E7F8083888180618883AE
:10312000CDB7DEB7E8E00C94FD271F920F920FB6E3
:103130000F9211242F933F934F935F936F937F933D
:103140008F939F93AF93BF93EF93FF938091E10091
:1031500082FF09C08091E20082FF05C08091E100FA
:103160008B7F8093E1008091DA0080FF2AC08091FC
:10317000D80080FF26C08091DA008E7F8093DA002D
:103180008091D90080FF18C080E189BD82E189BDAE
:1031900009B400FEFDCF81E08093A202809171020C
:1031A00081110FC00E941B180E943A188091E20002
:1031B00084608093E20005C019BC1092A2021092B4
:1031C00071028091E10080FF17C08091E20080FFD2
:1031D00013C08091E2008E7F8093E2008091E20034
:1031E00080618093E2008091D80080628093D80053
:1031F00019BC85E08093A2028091E10084FF30C079
:103200008091E20084FF2CC080E189BD82E189BD0C
:1032100009B400FEFDCF8091D8008F7D8093D80047
:103220008091E1008F7E8093E1008091E2008F7EAB
:103230008093E2008091E20081608093E2008091BF
:103240009702882311F084E007C08091E30087FD96
:1032500002C081E001C083E08093A2028091A202BB
:103260008091E10083FF27C08091E20083FF23C0AB
:103270008091E100877F8093E10082E08093A20249
:10328000109297028091E1008E7F8093E1008091FF
:10329000E2008E7F8093E2008091E2008061809363
:1032A000E20042E060E080E00E9467148091F0005C
:1032B00088608093F000FF91EF91BF91AF919F9153
:1032C0008F917F916F915F914F913F912F910F90CF
:1032D0000FBE0F901F9018952091E4003091E500EB
:1032E00095E64091EC00842F817040FF23C08091CF
:1032F000E80080FD1DC08091A202882399F08530EE
:1033000099F08091EB0085FD11C04091E40050914F
:10331000E5002417350729F3915011F09A01E1CF08
:1033200084E0089582E0089583E0089581E008959F
:1033300080E008954091E80042FFDDCF0895EF92CC
:10334000FF920F931F93CF93DF937C018B010E9419
:103350006C19811119C0E70101151105A1F08091C7
:10336000E80085FD0AC08091E8008E778093E80030
:103370000E946C19882381F307C089918093F10022
:1033800001501109E9CF80E0CDB7DEB7E6E00C943B
:10339000FF27CF932091A202243029F5C091E900A4
:1033A000CF703091EC00232F217030FD20E8C22B2C
:1033B00023E02093E9002091E80020FF11C040E0C5
:1033C00050E060E270E00E949F19882321F0109283
:1033D000A0021092A1028091E8008E778093E8000D
:1033E000CF70C093E900CF910895EF92FF920F93B1
:1033F0001F93CF93DF938091420380FF08C00BEBB4
:1034000012E087EFE82E82E0F82EF8011BC0EBEB0C
:10341000F2E087EF92E011821082128213823496DA
:103420008E179F07C1F7EBCF381708F4832F8383DC
:10343000381B3183281B2083981B92833496EE1609
:10344000FF0641F0928120813181892F291760F791
:10345000822FEACF8091AF02882381F180911801F9
:1034600090911901892B51F580911701882331F131
:1034700065E070E084E80E94F926892B19F010922B
:1034800017011AC0CBEBD2E065E070E088810E94A2
:103490006C2765E070E089810E946C2765E070E030
:1034A0008A810E946C2765E070E08B810E946C2706
:1034B0002496EC16FD0641F70E94BF27579A8BB160
:1034C0008F779BB190682FB7F894E016F10699F0CA
:1034D000F80131918F0148E09BB9000000C037FF2F
:1034E0008BB9330F000000C000C000C08BB900C012
:1034F0004A9591F7EACF2FBF8FE594E00197F1F756
:1035000000C00000CDB7DEB7E6E00C94FF27909135
:10351000420390FF0DC0EBEBF2E0818360834283B6
:103520001382349692E0E73FF907B9F70E94F51944
:10353000089580914203282F269530E0211531050A
:1035400019F48170826005C02B32310524F081703E
:103550008465809342030895CF92DF92EF92FF92A9
:103560006B017C010E94991AB701A60188E090E0E6
:103570000E94B028FF90EF90DF90CF900895809147
:103580004603882319F081508093460360914203DB
:103590007091430380914403909145030E94AC1ABB
:1035A000089580914603833018F48F5F809346031B
:1035B00060914203709143038091440390914503CD
:1035C0000E94AC1A0895E2E4F3E083E08083118264
:1035D0008FEF8283838314826081718182819381E2
:1035E0000E94AC1A0895A0E0B0E0E9EFFAE10C9473
:1035F000DF27E82EF62EE901E42FF0E0611106C086
:10360000E151FB4FE4914E2F2E2F71C0062F10E099
:10361000E151FB4F4491F42FC42ED12C26E0829F20
:10362000C00111242FEF30E0B9010E94C3275BEAEB
:103630005603C001579F900D11248E0D911D8E0DC4
:10364000911D582F550F580FD901A01BB10BAC9DE0
:10365000C001AD9D900DBC9D900D1124E92FF59EEC
:10366000D0011124AB2FBB277901EA1AFB0AEC9C8D
:10367000D001ED9CB00DFC9CB00D11245901A51A90
:10368000B108A09E7001A19EF00CB09EF00C112418
:10369000EF2CFF242E193F092C9D80012D9D100D2C
:1036A0003C9D100D1124212F6230710591F048F4DA
:1036B00061157105E1F061307105B9F4242F4B2FCC
:1036C00016C06430710569F040F06630710579F01C
:1036D0000CC0242F492FE12F0AC0492FEF2F2B2F89
:1036E00006C0292FE42F412F02C0292FEB2F498339
:1036F0002883EA831B82CDB7DEB7EAE00C94FB2770
:10370000A4E0B0E0E6E8FBE10C94E72790914203E7
:1037100090FF0AC09E012F5F3F4F0E94F31A4B811A
:1037200069818A810E94871A2496E2E00C9403281A
:10373000A4E0B0E0EEE9FBE10C94DA27F82E762E57
:10374000E42E622E9091420390FF67C0E92FE69528
:10375000AE2FB0E0A758BE4F8C918093B6029E7FEB
:10376000923061F49E012F5F3F4F8F2D0E94F31A1C
:103770004B8169818A810E94871A3DC0823019F489
:10378000E090450338C0863019F4F090430333C00D
:103790008930D9F3893179F5E9518E2F8170582E0E
:1037A000E695F0E0E151FA4FE4910E2F10E08BEB3B
:1037B000C82E82E0D82EA12CB12C9FE0892E912C0E
:1037C000C501B4010E94C3278F2D511002C0860F7E
:1037D00001C0861B96014E2D672D0E94F31AA00E84
:1037E000B11E84E0C80ED11C87EFC81682E0D8064F
:1037F00039F70E94F519F092430370924403E09266
:103800004503662051F0609142037091430380911B
:103810004403909145030E94AC1A2496EFE00C9467
:10382000F627E2E4F3E043812CE0421B08F440E099
:1038300021E0628181810E94981B0895E2E4F3E017
:1038400043812CE0420F08F44FEF21E06281818137
:103850000E94981B0895E2E4F3E062812FEF621B5F
:1038600008F460E021E0438181810E94981B089563
:10387000E2E4F3E062812FEF620F08F46FEF21E0E2
:10388000438181810E94981B0895E2E4F3E08181E5
:1038900021E0438162818C500E94981B0895E2E4EC
:1038A000F3E0818121E043816281845F0E94981B63
:1038B00008958D3E39F49091AC0297FF35C0109277
:1038C000AC0259C08E3E29F49091AC021916BCF39B
:1038D0002BC09091AB028F3E29F497FF25C0109228
:1038E000AB0249C0803F19F41916CCF31DC090916A
:1038F000AD02893F29F41916BCF41092AD023BC009
:103900008A3F19F497FF10C0F8CF8B3F39F490919C
:10391000AE0297FF09C01092AE022DC08C3F21F479
:103920009091AE021916BCF39FE0980F983080F486
:1039300021E030E0A90102C0440F551F9A95E2F73B
:10394000CA0180959091AA0289238093AA0213C08C
:103950008D3F21F48091A5028E7F0BC08E3F21F414
:103960008091A5028D7F05C08F3F29F48091A5022B
:103970008B7F8093A5028091AB02811106C080915C
:10398000AC02811102C01092A4028091AD0281119B
:1039900006C08091AE02811102C01092A302089568
:1039A0008091A50280FD18C081FD14C082FD16C063
:1039B0008091A302882381F08C3380F427E0829FDA
:1039C000C00111246CE370E00E943F29862F672B11
:1039D00019F005C083E0089581E0089587E0089517
:1039E0008091A50280FD17C081FD17C082FD19C01E
:1039F0008091A402882399F08C3398F428E3829F65
:103A0000C00111246CE370E00E943F29862F672BD0
:103A100049F481E008958EE008958CE1089588E0EE
:103A2000089588E308958D3E21F40E94F01C81954D
:103A300004C08E3E29F40E94F01C8093AC020895CD
:103A40008F3E21F40E94F01C819504C0803F29F430
:103A50000E94F01C8093AB020895893F19F40E94E4
:103A6000D01C05C08A3F31F40E94D01C8195809300
:103A7000AD0208958B3F21F40E94D01C819504C0B3
:103A80008C3F29F40E94D01C8093AE0208959FE0E1
:103A9000980F983078F421E030E0A90102C0440F7B
:103AA000551F9A95E2F7CA019091AA02892B80933B
:103AB000AA0208958D3F21F48091A50281600BC078
:103AC0008E3F21F48091A502826005C08F3F29F4CA
:103AD0008091A50284608093A502089560914203BD
:103AE000669570E04BE050E08AE191E00E94892AFF
:103AF000892B19F481E08093B7020E94532190939F
:103B0000B1028093B00208959091420390FF36C0B5
:103B10009170811102C0926006C08B3210F09465E2
:103B200002C0880F982B90934203662351F0609156
:103B300042037091430380914403909145030E9496
:103B4000AC1A60914203669570E04BE050E08AE168
:103B500091E00E94892A892B19F01092B70202C0C5
:103B60000E946E1D81E08093B30220E040914503E6
:103B700060914403809143030E94981B089561E083
:103B80000E94841D0895E2E4F3E0808181608083D7
:103B900086950E94BF1D08958091420386958150AD
:103BA00009F48AE261E00E94841D08958091420335
:103BB00086958F5F8B3208F081E061E00E94841D62
:103BC00008950E9453212091AB02211104C020913D
:103BD000AC02222321F09093A9028093A8022091A5
:103BE000AD02211104C02091AE02222321F0909356
:103BF000A7028093A602E0914B03F0914C0330970B
:103C000031F00480F581E02D8AEA92E0099508956B
:103C1000809174020895089522E02093E9002FEF27
:103C20003091E800215035FD06C035ED3A95F1F7A9
:103C300000002111F5CF2091E80025FF0BC040E0E6
:103C400050E065E070E00E949F198091E8008E7757
:103C50008093E8000895CF93DF93209116012223EB
:103C600039F02091540327FF03C060E225E002C031
:103C700068E021E02093E9002FEF3091E800215027
:103C800035FD06C035ED3A95F1F700002111F5CF6D
:103C90002091E80025FF1DC0EC01809116018111E3
:103CA00005C040E050E068E070E003C070E040E034
:103CB00050E0CE010E949F198091E8008E7780939A
:103CC000E80080E2FE01A5E7B2E001900D928A953E
:103CD000E1F7DF91CF910895A0E0B0E0E2E7FEE1E7
:103CE0000C94DE27FC01A280948081E08483E4EFC1
:103CF000F5E0B490E3E7F6E0E491C7EFD2E0FBEB48
:103D0000EF2EF2E0FF2ECC24CA94D12CEB190E2F0B
:103D100010E022E02A1530F08091430388838091DF
:103D200044038983911003C01B821A8255C08B8182
:103D30008823F9F081508B832FEF829FC0011124DB
:103D40006C8170E00E94C327FB01FF27EC50FA4F03
:103D50008491E82FEB192FEFE29FC0011124B801E5
:103D60000E94C32780914503689FB00111247A8384
:103D700033C00E945A28209145032695215830E0EF
:103D8000A901440F551F322F2227240F351F232F3F
:103D900033278217930704F582E08A1588F40E947E
:103DA0005A28B6010E943F2988830E945A282091F0
:103DB00044032695622F70E00E943F29280F298333
:103DC0001A8280914503843120F0893C18F088ECF8
:103DD00001C084E18C838B8397014A81698188814A
:103DE0000E94F31A259624E0E20EF11C83E0C2340F
:103DF000D80709F08ECF0E94F519CDB7DEB7EBE0FA
:103E00000C94FA27EF92FF920F931F93CF93DF93B7
:103E10008C01CBEBD2E0E12CF12CF8018481F7E0AE
:103E2000EF16F1041CF4882339F002C0811104C09C
:103E30009E014091450302C09E0140E06091440311
:103E4000809143030E94F31A8FEFE81AF80A249630
:103E50009FE0E916F10409F70E94F519F801848141
:103E600090E00196817099278483CDB7DEB7E6E0B4
:103E70000C94FF27A0E0B0E0E0E4FFE10C94DD2724
:103E8000EC014C81042F10E09801D8010E94162902
:103E90009B01AC010E94E1286B017C01E0E2F0E0B3
:103EA000E01BF10BA5E5B0E09B01AC010E94E1280D
:103EB0004B015C019F01DF010E9459299B01AC016C
:103EC0000E94EC289B01AC012C0D3D1D4E1D5F1D79
:103ED000C501B4010E94F428822FF22E99E29217B4
:103EE00028F093E0299F900111240DC025E530E0D2
:103EF000281B3109C901880F991F280F391F37FF67
:103F000002C02F5F3F4F35952795122F10959BEBE1
:103F1000C92E92E0D92E00E085E5E82EEF1801FDCC
:103F200002C08E2D01C08F2D9601412F6091440358
:103F30000E94F31A0F5F84E0C80ED11C0F3079F78E
:103F40000E94F5198C81811102C091E003C080327A
:103F500019F49FEF9093270190912701890F8C838B
:103F6000CDB7DEB7ECE00C94F9270F931F93CF93F6
:103F7000DF93CBEBD2E0FE0111821082128213821A
:103F8000349682E0E73FF807B9F700E010E080914F
:103F9000B902082E000C990B0817190794F08091AC
:103FA0002601082E000C990B8017910754F09E01F2
:103FB0004091450360914403809143030E94F31AAA
:103FC00004C0198218821A821B820F5F1F4F249629
:103FD0000F301105E1F60E94F519809125019091AD
:103FE000B902980F9093B90220912601280F2093CF
:103FF0002601121614F49E301CF081958093250141
:10400000DF91CF911F910F910895A0E0B0E0EBE018
:10401000F0E20C94E027FC01828180FF03C0DD24E4
:10402000DA9402C0DD24D3940BEB12E0C0E0D0E0C0
:104030002FE0B22EF801118210821282138294E0D6
:10404000E92EF12CC12C8091B8028C0D80312CF01E
:104050006B2D0E943129892F02C087FD815F082EB8
:10406000000C990BC817D90791F4809145038E9DD8
:10407000A0018F9D500D1124559547955595479555
:10408000980160914403809143030E94F31ACD0C80
:10409000F1E0EF1AF108B9F621960C5F1F4FCF300F
:1040A000D10541F60E94F5198091B80291E0D9122C
:1040B00006C0811102C08EE007C0815005C090E0AB
:1040C0000196BE010E943F298093B802CDB7DEB7AA
:1040D000E9E00C94FC27EF92FF921F93CF93DF93BC
:1040E000EC018BEBE82E82E0F82E10E08C8197013A
:1040F0004091450360914403810F0E94F31A1F5EB3
:1041000084E0E80EF11C1F3F89F70E94F5199A819F
:104110008C8190FF02C08F5F01C081508C83DF9142
:10412000CF911F91FF90EF900895A4E0B0E0EBE9EC
:10413000F0E20C94E5278C018091BA0281110AC04B
:104140009E012F5F3F4F4FEF6FEF0E94F31A8A815E
:104150008093BA02F8018481813051F028F08230D6
:1041600061F44091BA020AC08091BA0240E007C0EF
:104170006091BA0240E080E003C040E080E060E08F
:104180000E94871AF801848190E0019663E070E054
:104190000E943F2984832496E4E00C940128CF9365
:1041A000DF93EC01E2E4F3E0438162818C810E94C1
:1041B000801B8C818F5F8C83DF91CF910895CF938B
:1041C000DF93EC01EC81F0E0EC50FA4F4491E2E433
:1041D000F3E0628181810E94801B8C818F5F8C83E0
:1041E000DF91CF91089580935603709358036093A5
:1041F00057038091A202843001F585E08093E900A5
:104200008FEF9091E800815095FD06C095ED9A954D
:10421000F1F700008111F5CF8091E80085FF0DC016
:1042200040E050E063E070E086E593E00E949F1973
:104230008091E8008E778093E800089578941F922B
:104240000F920FB60F9211248F939F93AF93BF934A
:104250008091500390915103A0915203B091530368
:104260000196A11DB11D8093500390935103A0931B
:104270005203B0935303BF91AF919F918F910F90D1
:104280000FBE0F901F9018959C014FB7F894809126
:10429000500390915103A0915203B09153034FBF2B
:1042A000821B930B08952FB7F8948091500390913F
:1042B0005103A0915203B09153032FBF08951F9251
:1042C0000F920FB60F9211248F939F93AF93BF93CA
:1042D00080914F03811113C080915003909151033D
:1042E000A0915203B09153034196A11DB11D80933B
:1042F000500390935103A0935203B0935303BF9183
:10430000AF919F918F910F900FBE0F901F901895B6
:10431000209116012223C9F02091540327FF15C0D4
:10432000262F2695269526952E31C8F4FC01E20FFE
:10433000F11D677081E090E001C0880F6A95EAF78F
:1043400080959281892382830895FC0106962281BB
:10435000621301C012823196E817F907C1F7089578
:1043600020914D0330914E032817390771F0909337
:104370004E0380934D03E0914B03F0914C03309733
:1043800021F00084F185E02D0995089520914903DD
:1043900030914A032817390771F090934A038093AC
:1043A0004903E0914B03F0914C03309721F00680D4
:1043B000F781E02D09950895E0914B03F0914C03AE
:1043C000309729F00190F081E02D0995089580E063
:1043D000089580914803882349F0809147038D7D9B
:1043E000809347030E949710109248030895CF933B
:1043F000DF930E945A2866E070E00E943F29D82F80
:104400000E945A286EE070E00E943F29C82F6D2F4D
:10441000782F80E00E945F0E0497C59718F48D2FC7
:104420009C2F02C00E94F721DF91CF9108959091B7
:10443000420390FF04C09695981748F003C081117D
:1044400006C090E0961718F40E94D61D08950E94A9
:10445000BF1D0895882311F0FA0101C0FB010995E1
:104460000895A7E1B0E0E7E3F2E20C94E6274B8B76
:104470005C8B6D8B7E8B8F8B61111092470386E076
:104480009E01235F3F4FD901E82F1D92EA95E9F77E
:1044900095E0FE017396D90101900D929A95E1F78E
:1044A0009C894E895F897B897D879E876F87598B21
:1044B000488BF901DE01179601900D928A95E1F77C
:1044C000CE0107960E94981181113EC086E0FE0140
:1044D0003796DE01119601900D928A95E1F7FF81E2
:1044E000E8856A857B856115710531F0EF3F31F410
:1044F00081E0FF3F19F403C081E001C080E080FD4E
:1045000023C02091130230E0C901019687709927DA
:104510004091440250E08417950779F1F983EA83CA
:104520007D836C8396E0929FD001939FB00D112400
:10453000AC5EBD4FFE01319601900D929A95E1F768
:10454000809313020E94251116E0809144029091FD
:104550001302891709F1189FC00111248C5E9D4F29
:104560000E9498118823C1F08091440290E0019646
:104570008770992780934402E8CF109272020E94BC
:10458000F4251092130210924402EDE0F2E086E06E
:10459000DF011D928A95E9F76796E3E00C94022803
:1045A000982F92959F7019F0892F24E001C020E088
:1045B000982F9695969511F02E5F892F982F9695A6
:1045C00009F02F5F822F0895109272020E94F42545
:1045D0002FEF84E39CE0215080409040E1F700C041
:1045E00000009AE088E10FB6F894A89580936000E7
:1045F0000FBE90936000FFCFCF93C82F0E94D022B0
:1046000056985E9825982D9826982E9827982F983A
:1046100090E0FC013197E730F105A8F4E459FF4F31
:104620000C945329259A2D9A0EC0259A2D9A269AD4
:104630002E9A09C0259A2D9A04C0259A2D9A269A59
:104640002E9A279A2F9A8C2FCF91089580E290E08E
:1046500090931901809318018091AF0281110EC0CF
:104660000E94F32681E08093AF022FEF83ED90E369
:10467000215080409040E1F700C0000060E570E00C
:1046800080E40E94F9269093190180931801892BE8
:1046900009F04EC060E570E080E00E946C279093C6
:1046A000190180931801892B09F042C060E570E080
:1046B00080E00E946C279093190180931801892B48
:1046C000B9F560E570E08FE30E946C2790931901C3
:1046D00080931801892B61F50E94BF2760E570E087
:1046E00080E40E94F9269093190180931801892B88
:1046F000F9F460E570E08CE00E946C27909319015A
:1047000080931801892BA1F460E570E080E00E949D
:104710006C279093190180931801892B49F460E567
:1047200070E08FE30E946C27909319018093180129
:104730000E94BF27809118010895CF93DF93569868
:104740005E9825982D9826982E9827982F98C8E837
:10475000D0E08FEF90E099838883AAE8B0E01196CB
:104760009C938E93ECE8F0E091838083259A2D9AB8
:104770002FEF80E792E0215080409040E1F700C0A9
:104780000000269A2E9A2FEF80E792E02150804079
:104790009040E1F700C00000279A2F9A2FEF80E7A2
:1047A00092E0215080409040E1F700C00000259841
:1047B0002D982FEF80E792E0215080409040E1F764
:1047C00000C0000026982E982FEF80E792E021503D
:1047D00080409040E1F700C0000027982F9880911A
:1047E000A90187702FEF829FC001112495958795AD
:1047F0009595879599279983888311969C938E9395
:104800009183808356985E9825982D9826982E98A7
:1048100027982F98DF91CF910895CF93E82F873075
:1048200080F58091180190911901892B09F047C0FA
:10483000CE2F60E570E080E40E94F9269093190184
:1048400080931801892BD1F460E570E082E10E9429
:104850006C279093190180931801892B79F481E0DA
:1048600090E001C0880FCA95EAF760E570E0809596
:104870000E946C2790931901809318010E94BF2712
:104880001EC090E0FC013797E730F105C0F4ED5809
:10489000FF4F0C945329209A289811C0219A2998E7
:1048A0000EC0229A2A980BC0239A2B9808C0529ABD
:1048B0005A9805C0539A5B9802C03E9A4698CF9189
:1048C0000895209828982198299822982A98239822
:1048D0002B9852985A9853985B983E98469808950A
:1048E000CF93873040F58091180190911901892B61
:1048F00059F560E570E081E40E94F9269093190172
:1049000080931801892B11F0C0E011C080E590E080
:104910000E949B2797FF05C090931901809318016F
:10492000F3CFC82FC09510921901109218010E9460
:10493000BF278C2F0AC09FB18FB1807F8695869547
:104940009370892B809501C080E0CF910895809865
:10495000889A8198899A84988C9A85988D9A869855
:104960008E9A87988F9A089580E090E00E94C621E1
:1049700080E090E00E94B021109247030E949710BF
:10498000EAEAF2E085E0DF011D928A95E9F71092EC
:10499000A4021092A3021092A5020E94E11D0895A4
:1049A000CF92DF92FF920F931F93CF93DF936C010F
:1049B0000091BC0180916702082BC7E0D0E010E0B5
:1049C000C8010C2E02C0959587950A94E2F780FDE8
:1049D00004C02197A8F7F12C09C0FC2EB6018C2F3A
:1049E0000E945F0E0E94780E019799F38F2DDF9140
:1049F000CF911F910F91FF90DF90CF900895CF93AB
:104A0000DF93EC010E94D024BE010E945F0E0E9441
:104A1000780EDF91CF910895292F9E3078F586305A
:104A200068F590E036E0239F800D911D1124682FDA
:104A3000677023E0969587952A95E1F7FC01EE0FC4
:104A4000FF1FE80FF91FE75AFC4F40E050E080E0FD
:104A5000219130E0062E02C0369527950A94E2F7A0
:104A600021703327042E01C0220F0A94EAF7822B0B
:104A70004F5F5F4F4330510559F7089580E0089527
:104A8000292F9E3088F5863078F590E036E0239F18
:104A9000800D911D1124282F277051E001C0550F62
:104AA0002A95EAF723E0969587952A95E1F7FC0188
:104AB000EE0FFF1FE80FF91FE75AFC4F20E030E030
:104AC00070E04081CB01022E02C0969587950A9432
:104AD000E2F78170819584278523842781932F5F56
:104AE0003F4F2330310569F70895A0E2B0E0EBE7CE
:104AF000F5E20C94E6270E94FC22182F8091A10277
:104B00008823A9F02FEF80E792E021508040904069
:104B1000E1F700C0000085E08983812F0E94D02248
:104B20008A838EEF8B83CE0101960E94C919109360
:104B3000BC010E94B424A096E3E00C94022821E07A
:104B400030E001C0220F8A95EAF720958091BC01E0
:104B500082230E947525089521E030E001C0220FD4
:104B60008A95EAF78091BC01822B0E9475250895F1
:104B7000809367020E94B4240895CF93FC01808142
:104B8000918123813481232B31F09F3F31F491E0D7
:104B90008F3F19F403C091E001C090E0C92FC170AC
:104BA00090FD1CC0808191810E94FF2492959F708E
:104BB000963079F010F4925001C09A50923088F4F7
:104BC000803F71F018F4883E60F40AC0843F49F4D5
:104BD00007C0883E28F0813F21F402C0C0E001C038
:104BE000C1E08C2FCF91089580911601882331F078
:104BF0008091540387FF02C08EE101C086E0EFEE92
:104C0000F1E0DF011D928A95E9F70E94B42408952E
:104C1000882321F00E9490100E9497100895882305
:104C200039F090917202892B809372020E94971042
:104C30000895882391F19CEF980F913A30F4682FF2
:104C40008DEE91E00E9488210DC090E2980F98307F
:104C500060F4877091E001C0990F8A95EAF7892F77
:104C60000E9490100E94971008959BE5980F933032
:104C700028F480E090E00E94C621089598E5980FFE
:104C8000973128F480E090E00E94B02108958D3E95
:104C900020F00E94591C0E94E11D0895CF938823A3
:104CA00009F49FC0C82F8CEF8C0F813A08F05BC0CD
:104CB000809116018823E1F08091540387FF18C08A
:104CC000EC2FE695E695E695F0E0E351FE4F828104
:104CD000282F30E04C2F477081E090E002C0880F11
:104CE000991F4A95E2F782239323892B59F411C027
:104CF000EFEEF1E08191C81729F081E0E53FF80778
:104D0000C9F707C06C2F8DEE91E00E9488210E94A8
:104D10009710809116018823B1F08091540387FF8A
:104D200012C0EC2FE695E695E695F0E0E351FE4FD4
:104D3000C77081E090E001C0880FCA95EAF79281C0
:104D4000892B828320C0AFEEB1E0EFEF80E09D9130
:104D5000C917C9F0EF3F19F4911101C0E82F8F5F17
:104D60008630A9F735C080E28C0F883078F4C770A0
:104D700081E090E001C0880FCA95EAF79091720235
:104D8000892B809372020E9497102BC0EBE5EC0FE9
:104D9000E33040F4F0E0EC5CFE4F808190E00E9454
:104DA000C6211FC0E8E5EC0FE73150F4F0E0EE0F4C
:104DB000FF1FE95CFE4F808191810E94B02111C0EC
:104DC000CD3E78F08C2F0E94131D0E94E11D09C07A
:104DD000EF3FC9F20E2E000CFF0BE351FE4FC283D2
:104DE000D2CFCF9108951092B9008CE08093B80093
:104DF0000895A0E0B0E0EFEFF6E20C94DE27B82EC5
:104E0000EB010E9453216C01C431D10558F0CF3F12
:104E10008FEFD80759F0CE0164E170E00E94C327FC
:104E20007B0107C0EE24E394F12C03C025E0E22EC1
:104E3000F12C84E8A82E94EA992E1092BC0090924E
:104E4000BC000E9453218C018091BC0087FD07C0EB
:104E5000C8010E944421E816F906B0F729C08091E4
:104E6000B900887F883041F08091B900887F803117
:104E700019F00FEF1FEF1EC0B092BB00A092BC0054
:104E80000E9453218C018091BC0087FD07C0C8019E
:104E90000E944421E816F906B0F70AC08091B900D3
:104EA000887F883111F0803421F700E010E00EC0D7
:104EB0000EEF1FEFCF3F8FEFD80709F4BECFC6012B
:104EC0000E944421C817D90708F0B7CFC801CDB751
:104ED000DEB7EBE00C94FA270F931F93CF93DF9389
:104EE000EB018093BB0084E88093BC000E945321B7
:104EF0008C018091BC0087FD0DC0CF3F8FEFD8079C
:104F0000C1F3C8010E944421C817D90790F78EEF5A
:104F10009FEF0CC02091B900287F81E090E02832FB
:104F200011F480E090E0919581959109DF91CF9106
:104F30001F910F9108950F931F93CF93DF93EC016F
:104F400084E88093BC000E9453218C018091BC00B6
:104F500087FD0DC0CF3F8FEFD807C1F3C8010E9476
:104F60004421C817D90790F78EEF9FEF03C08091B7
:104F7000BB0090E0DF91CF911F910F91089584E9DC
:104F80008093BC000895AA1BBB1B51E107C0AA1F58
:104F9000BB1FA617B70710F0A61BB70B881F991FDA
:104FA0005A95A9F780959095BC01CD0108952F924F
:104FB0003F924F925F926F927F928F929F92AF92A9
:104FC000BF92CF92DF92EF92FF920F931F93CF93F6
:104FD000DF93CDB7DEB7CA1BDB0B0FB6F894DEBF8D
:104FE0000FBECDBF09942A88398848885F846E84B3
:104FF0007D848C849B84AA84B984C884DF80EE80FD
:10500000FD800C811B81AA81B981CE0FD11D0FB605
:10501000F894DEBF0FBECDBFED0108958F929F9231
:10502000AF92BF92CF92DF92EF92FF92CF93DF9336
:10503000EC01688179818A819B8161157105810507
:10504000910521F464E279ED8BE597E02DE133EFF2
:1050500041E050E00E94C22849015A019B01AC0185
:10506000A7EAB1E40E94E1286B017C01ACEEB4EF49
:10507000A50194010E94EF28DC01CB018C0D9D1D40
:10508000AE1DBF1DB7FF03C00197A109B0488883BB
:105090009983AA83BB839F77DF91CF91FF90EF9095
:1050A000DF90CF90BF90AF909F908F9008950E9417
:1050B0000E28089580E091E00E940E280895A0E057
:1050C000B0E08093000190930101A0930201B0939E
:1050D00003010895DC01CB01FC01F999FECF06C064
:1050E000F2BDE1BDF89A319600B40D9241505040A6
:1050F000B8F70895F999FECF92BD81BDF89A992726
:1051000080B50895A6E1B0E044E050E00C946C282E
:10511000A8E1B0E042E050E00C946C28DC01A40F60
:10512000B51F4150504048F0CB01840F951F2E9180
:105130000E949F2841505040D0F70895262FF9999A
:10514000FECF92BD81BDF89A019700B4021639F0E6
:105150001FBA20BD0FB6F894FA9AF99A0FBE0895B7
:105160000396272F0E949F280E949E28252F0E9489
:105170009F28242F0C949F280196272F0E949F2858
:105180000C949E28052E97FB1EF400940E94D928AB
:1051900057FD07D00E94F42807FC03D04EF40C946E
:1051A000D92850954095309521953F4F4F4F5F4FEF
:1051B000089590958095709561957F4F8F4F9F4F83
:1051C00008950E941629A59F900DB49F900DA49F4D
:1051D000800D911D11240895B7FF0C94E1280E94C1
:1051E000E128821B930B0895A1E21A2EAA1BBB1B78
:1051F000FD010DC0AA1FBB1FEE1FFF1FA217B307A3
:10520000E407F50720F0A21BB30BE40BF50B661FB8
:10521000771F881F991F1A9469F76095709580957C
:1052200090959B01AC01BD01CF010895A29FB001F3
:10523000B39FC001A39F700D811D1124911DB29FCA
:10524000700D811D1124911D0895991B79E004C0F2
:10525000991F961708F0961B881F7A95C9F78095B5
:10526000089587FB082E062687FD819567FD6195C9
:105270000E9425290EF4919507FC8195089597FBCE
:10528000072E16F4009407D077FD09D00E94C3279B
:1052900007FC05D03EF4909581959F4F0895709539
:1052A00061957F4F0895EE0FFF1F0590F491E02D5B
:1052B00009940E941629332312F48A1B9B0B0C9429
:1052C00063290E941629B7FF0895821B930B089546
:1052D0000F931F93CF93DF938230910510F482E0F8
:1052E00090E0E0917C03F0917D0320E030E0A0E0CD
:1052F000B0E0309719F14081518102811381481744
:105300005907C8F08417950769F4109731F0129681
:105310000C93129713961C9327C000937C03109351
:105320007D0322C02115310519F04217530718F4E7
:105330009A01BD01EF01DF01F801DBCF2115310535
:10534000F9F0281B390B2430310580F48A819B81C8
:105350006115710521F0FB019383828304C0909352
:105360007D0380937C03FE01329644C0FE01E20F70
:10537000F31F8193919322503109398328833AC0D6
:1053800020917A0330917B03232B41F42091060175
:105390003091070130937B0320937A03209104011D
:1053A000309105012115310541F42DB73EB74091EB
:1053B000080150910901241B350BE0917A03F0910B
:1053C0007B03E217F307A0F42E1B3F0B28173907C6
:1053D00078F0AC014E5F5F4F2417350748F04E0F51
:1053E0005F1F50937B0340937A038193919302C094
:1053F000E0E0F0E0CF01DF91CF911F910F91089590
:10540000CF93DF93009709F481C0FC013297138298
:105410001282A0917C03B0917D03109781F42081CA
:105420003181820F931F20917A0330917B032817DB
:10543000390751F5F0937B03E0937A0367C0ED01E0
:1054400020E030E0CE17DF0740F44A815B819E0107
:1054500041155105F1F0EA01F5CFD383C2834081B4
:105460005181840F951FC817D90759F488819981F4
:10547000840F951F0296918380838A819B819383F9
:1054800082832115310529F4F0937D03E0937C0399
:105490003DC0E901FB83EA8349915991C40FD51FAF
:1054A000EC17FD0761F480819181840F951F0296AE
:1054B000E90199838883828193819B838A83E0E0D9
:1054C000F0E012968D919C911397009719F0FD01D1
:1054D000DC01F7CF8D919C9111979D012E5F3F4F7D
:1054E000820F931F20917A0330917B03281739078D
:1054F00069F4309729F410927D0310927C0302C066
:1055000013821282B0937B03A0937A03DF91CF9131
:105510000895FC014150504030F001900616D1F73B
:105520003197CF010895882799270895FB01DC0161
:1055300004C08D910190801921F441505040C8F76A
:0A554000881B990B0895F894FFCF23
:10554A000100000000007E032000081E2B1E0C1E16
:10555A000015FB14FA140101200001191A1B1C1D65
:10556A001E1F202122010201516A5935702F6770CE
:10557A0059583300818283E200E900EA00B500B697
:10558A0000B700CD008301CC008A01920194012169
:10559A0002230224022502260227022A02B300B4A9
:1055AA00006F0070004022476DD703B5036E0301F8
:1055BA00032904420462047B040001020202020677
:1055CA0006060909090909090F0F0F0F0F0F15150B
:1055DA001518191919191919191919192324252509
:0455EA002525252529
:00000001FF
