:100000000C9467020C9484020C9484020C94840275
:100010000C9484020C9484020C9484020C94840248
:100020000C9484020C9484020C94DB0D0C941D0D32
:100030000C94451C0C9484020C9484020C9484024D
:100040000C9484020C9484020C9484020C94840218
:100050000C9484020C94041C0C9484020C9484026E
:100060000C9484020C9484020C9484020C948402F8
:100070000C9484020C9484020C9484020C948402E8
:100080000C9484020C9484020C9484020C948402D8
:100090000C9484020C9484020C9484020C948402C8
:1000A0000C9484020C9484020C948402630368030D
:1000B000720366036B0370036E039C049F04A20427
:1000C000A504A804AB04AE0463076307960796076C
:1000D00001081F08290929092A089E08AF08AF0846
:1000E000300B570B050D570B050DA30BC60B050D5C
:1000F000BB0CCB0C05010980A101850319012AB7AE
:1001000000150126B700950175108100C0050C0986
:1001100001A101850419012AA002150126A002955A
:100120000175108100C005010906A10185060507BA
:1001300019E029E7150025019508750181020507D9
:10014000190029EF1500250195F0750181020508B8
:100150001901290595057501910295017503910114
:10016000C005010902A1010901A100050919012920
:10017000081500250195087501810205010930095E
:10018000311581257F95027508810609381581256D
:100190007F950175088106050C0A38021581257FB7
:1001A000950175088106C0C00660FF0961A10109BB
:1001B00062150026FF00952075088102096315006D
:1001C00026FF00952075089102C005010906A101CE
:1001D000050719E029E71500250195087501810239
:1001E0009501750881010507190029FF150026FFF3
:1001F0000095067508810005081901290595057502
:10020000019102950175039101C009027400040176
:1002100000A0FA09040000010301010009211101F5
:1002200000012240000705810308000109040100C4
:10023000020300000009211101000122220007052C
:1002400083032000010705040320000109040200C4
:1002500001030102000921110100012247000705E5
:1002600082030800010904030001030000000921C2
:1002700011010001226D0007058503200001120114
:1002800000020000000897327449010001020001D9
:1002900016034500720067006F0044006F0078008D
:1002A000200045005A00000028035A005300410076
:1002B000200054006500630068006E006F006C0051
:1002C0006F006700790020004C006100620073003D
:1002D00000000403090429002B00E000E1000151A3
:1002E00000001E00140004001D00000F01001F008C
:1002F0001A0016001B0001002C0020000800070057
:1003000006002102E3002100150009001900E200A7
:100310000100220017000A00050000000100230070
:100320002E00000091000000025335003400000050
:1003300090000000010024001C000B0011000000D0
:100340000100250018000D0010002A000100260001
:100350000C000E00360038002800270012000F00A5
:10036000370050002C002D001300330252005100C2
:100370001F0231002F003300E5004F000000010094
:10038000010001000100010000003A00010001002D
:100390000100010001003B0001000100010001001B
:1003A00001003C00010001000100010001003D00CE
:1003B000010001000100010001003E0001000100F8
:1003C0000100000001003F000100000001000000EA
:1003D000010001000100000001000000045D400078
:1003E0004A00500001000000065D4100010051007C
:1003F0000100010001004200010052000100010063
:10040000010043004D004F000100010001004400C5
:1004100001000100FA00F900075D4500300001000D
:10042000010001000000005C01000100010001006A
:1004300000000100010001000100010001000100B5
:1004400001000100010001000100010001000100A4
:100450000100010001000100010001000100010094
:10046000010001000100010001000000A6000100E0
:100470000100000001000000010001000100000077
:100480000100000001000100010001000100000066
:100490000100010001000100010001000100010054
:1004A0000100010001000100010001000100010044
:1004B0000100010001000100010001000100010034
:1004C00001000100010001000100010000001124F1
:1004D0001FBECFEFDAE0DEBFCDBF11E0A0E0B1E09C
:1004E000EEE9F3E402C005900D92AE36B107D9F7FC
:1004F00025E0AEE6B1E001C01D92A03BB207E1F7F6
:100500000E943B0F0C94CD210C9400000E94C21558
:100510002FEF84E39CE0215080409040E1F700C041
:1005200000009AE088E10FB6F894A89580936000E7
:100530000FBE90936000FFCFA7E1B0E0E2EAF2E0E7
:100540000C94461F4B8B5C8B6D8B7E8B8F8B61115C
:100550001092800586E09E01235F3F4FD901E82F6E
:100560001D92EA95E9F795E0FE017396D901019095
:100570000D929A95E1F79C894E895F897B897D87E9
:100580009E876F87598B488BF901DE011796019082
:100590000D928A95E1F7CE0107960E948A13811188
:1005A0003EC086E0FE013796DE01119601900D9265
:1005B0008A95E1F7FF81E8856A857B85611571057C
:1005C00031F0EF3F31F481E0FF3F19F403C081E0E7
:1005D00001C080E080FD23C020912D0530E0C901DD
:1005E00001968770992740915E0550E08417950722
:1005F00079F1F983EA837D836C8396E0929FD00141
:10060000939FB00D1124A25DBA4FFE013196019067
:100610000D929A95E1F780932D050E94CE1916E070
:1006200080915E0590912D058917F9F0189FC00102
:100630001124825D9A4F0E948A138823B1F0809121
:100640005E0590E001968770992780935E05E8CF5C
:100650000E94C21510922D0510925E05E7E2F5E0AA
:1006600086E0DF011D928A95E9F76796E3E00C9436
:10067000621F982F92959F7019F0892F24E001C076
:1006800020E0982F9695969511F02E5F892F982F40
:10069000969509F02F5F822F0895CF93C82F0E945F
:1006A000390356985E9825982D9826982E98279865
:1006B0002F9890E0FC013197E730F105A8F4EA5A51
:1006C000FF4F0C949920259A2D9A0EC0259A2D9AA9
:1006D000269A2E9A09C0259A2D9A04C0259A2D9AF9
:1006E000269A2E9A279A2F9A8C2FCF91089580E2DE
:1006F00090E090931C0180931B0180917001811107
:100700000EC00E94531E81E0809370012FEF83ED95
:1007100090E3215080409040E1F700C0000060E588
:1007200070E080E40E94591E90931C0180931B018D
:10073000892B09F04EC060E570E080E00E94CC1E7D
:1007400090931C0180931B01892B09F042C060E546
:1007500070E080E00E94CC1E90931C0180931B01EE
:10076000892BB9F560E570E08FE30E94CC1E909371
:100770001C0180931B01892B61F50E941F1F60E5FE
:1007800070E080E40E94591E90931C0180931B012D
:10079000892BF9F460E570E08CE00E94CC1E909308
:1007A0001C0180931B01892BA1F460E570E080E0BF
:1007B0000E94CC1E90931C0180931B01892B49F44D
:1007C00060E570E08FE30E94CC1E90931C01809343
:1007D0001B010E941F1F80911B010895CF93DF937F
:1007E00056985E9825982D9826982E9827982F9899
:1007F000C8E8D0E08FEF90E099838883AAE8B0E062
:1008000011969C938E93ECE8F0E091838083259A77
:100810002D9A2FEF80E792E0215080409040E1F741
:1008200000C00000269A2E9A2FEF80E792E0215018
:1008300080409040E1F700C00000279A2F9A2FEFE8
:1008400080E792E0215080409040E1F700C0000036
:1008500025982D982FEF80E792E02150804090401E
:10086000E1F700C0000026982E982FEF80E792E075
:10087000215080409040E1F700C0000027982F9859
:100880008091A80487702FEF829FC0011124959555
:1008900087959595879599279983888311969C9339
:1008A0008E939183808356985E9825982D982698EC
:1008B0002E9827982F98DF91CF910895CF93E82F06
:1008C000873080F580911B0190911C01892B09F0E4
:1008D00047C0CE2F60E570E080E40E94591E9093DF
:1008E0001C0180931B01892BD1F460E570E082E14B
:1008F0000E94CC1E90931C0180931B01892B79F4DC
:1009000081E090E001C0880FCA95EAF760E570E0E9
:1009100080950E94CC1E90931C0180931B010E9425
:100920001F1F1EC090E0FC013797E730F105C0F4AF
:10093000E35AFF4F0C949920209A289811C0219ACD
:1009400029980EC0229A2A980BC0239A2B9808C087
:10095000529A5A9805C0539A5B9802C03E9A46989C
:10096000CF910895209828982198299822982A981C
:1009700023982B9852985A9853985B983E9846988B
:100980000895CF93873040F580911B0190911C0111
:10099000892B59F560E570E081E40E94591E90931F
:1009A0001C0180931B01892B11F0C0E011C080E570
:1009B00090E00E94FB1E97FF05C090931C0180935E
:1009C0001B01F3CFC82FC09510921C0110921B0180
:1009D0000E941F1F8C2F0AC09FB18FB1807F869508
:1009E00086959370892B809501C080E0CF91089502
:1009F0008098889A8198899A84988C9A85988D9AFB
:100A000086988E9A87988F9A089581E080938B05B7
:100A10000E94391C259A2D9A0895A5E2B0E0E3E1E1
:100A2000F5E00C943E1FFC0180819181238134818B
:100A3000232B31F09F3F31F491E08F3F19F403C035
:100A400091E001C090E090FD42C47F0185E0DE01AD
:100A5000919601900D928A95E1F7D70112962C910B
:100A600089A19AA1222349F00E941713182F682FF9
:100A700089A19AA10E94451503C00E941115182F43
:100A800069A17AA1812F0E9408178C0180917104BD
:100A9000811149C0F70182818111A8C00530FDE5AF
:100AA0001F0731F1A0F404308DE5180709F09EC04E
:100AB0000E9405050E94C21580E00E947A1581E718
:100AC00091E09093A2048093A10481E01FC00730BD
:100AD0009DE51907F1F00830ADE51A0709F086C069
:100AE00060910A0170910B014FEF8BE694E018C002
:100AF0000E9405050E94C21580E00E947A158BE6CF
:100B000094E09093A2048093A10482E08093710406
:100B1000CFC360910C0170910D0141E081E791E03C
:100B20000E94CF1CC5C3980124503D452330310598
:100B300008F045C091E00630BDE51B0709F490E0E0
:100B4000F7012281291709F4B3C3813069F082309B
:100B500099F50091A1041091A20410928B05809147
:100B60009B050E944D0320C00091A1041091A20496
:100B700010928B0580919B050E944D03F1E0013797
:100B80001F0739F0F80136978281882311F08F0111
:100B9000F5CF10930D0100930C010EC0F8013696AD
:100BA0008281882329F08F0124E00B361207B1F7E8
:100BB00010930B0100930A011092710479C38130E4
:100BC00059F0823099F460910C0170910D019701F8
:100BD0004FEF8BE694E008C060910A0170910B0121
:100BE000970141E081E791E00E94280A9091A304D7
:100BF000F7018281992309F44DC0811159C3E09115
:100C00007204E330A0F481E08E0F80937204F0E070
:100C1000EE0FFF1FE652FB4FD7018D919C91918300
:100C2000808382E08983CE0101960E940F0FBFEF7F
:100C3000E3EDF0E3B150E040F040E1F700C0000028
:100C400080917204833009F033C310927204E0EE95
:100C5000F4E0AAEDB4E086EE94E0318111962C9197
:100C6000119732132EC030812C9132132AC0329644
:100C700012968E179F0789F784E0898381E080931D
:100C8000A4048EEF8A831092A304CE0101960E94E1
:100C90000F0F0EC39091A4049923C1F0811102C0DB
:100CA00087E001C086E08983D7018C918A83119601
:100CB0008C918B838EEF8C83CE0101960E940F0F57
:100CC00005C083E089831092A404DBCF033BFDE5DC
:100CD0001F07D1F5F70182818823B1F19091A80413
:100CE00081E0890F8770987F853020F4892B80936D
:100CF000A80402C09093A8048091A8048770FFEF15
:100D00008F9FC00111249595879595958795992773
:100D1000909389008093880090938B0080938A0041
:100D200090938D0080938C004091A8045091A90469
:100D30006091AA047091AB048FE090E00E941020B3
:100D400080919B050E944D03D70112968C918823B8
:100D500009F469C00C352DE5120709F45FC058F499
:100D600001159CE5190799F00F3D1C4509F05BC082
:100D70000E94BD1849C00E35BDE51B0709F446C0E9
:100D800008F44EC0093A1D4509F43EC04CC00E940B
:100D9000C2152FEF84E39CE0215080409040E1F7A2
:100DA00000C00000F89481E08093E00080E280932E
:100DB000D8001092C900AFE1BEE41197F1F700C06E
:100DC00000001DBA109268001CBC10BE1FBA109221
:100DD0007A0010926E0010926F00109271001092C3
:100DE00072001092C9001092BC0014B817B81AB85B
:100DF0001DB810BA1092BC0015B818B81BB81EB8B0
:100E000011BA0C94003F54C20E9486028091A8053A
:100E100082FB882780F991E0892703C081E001C027
:100E200080E00E94B219F70182810081118188233C
:100E300049F0C8010E941713D82E682FC8010E94DC
:100E4000451504C0C8010E941115D82EB8018D2D7A
:100E50000E9408170E942117B82E192F982ED7012B
:100E600012960C9112971596AC90A2949FE0A9222D
:100E700080915F058770B9F00023A9F0812F807FF2
:100E8000803421F080E28B0D883068F08091A805D5
:100E900082FF09C082E00E94951980915F058770EA
:100EA000DD24D3948111D12CC12EC2948FE0C822AD
:100EB0008C2D90E08C30910508F0CBC1FC01EC59F1
:100EC000FF4F0C949920812F807F1F70882311F091
:100ED0001295107F0023B9F0112309F4A8C180E214
:100EE0008B0D883010F0911006C080918105182B71
:100EF0001093810505C080918005182B1093800503
:100F00000E94401994C18B2D0E94E915112309F408
:100F1000A0C180E28B0D883080F1992071F110958D
:100F2000809180051823109380052AC0812F807F2F
:100F30001F70803211F01295107F8B2D992021F0B7
:100F4000B1E09B16D9F147C08091A80582FD1BC076
:100F5000002369F0112339F080918105182B10933B
:100F600081050E94401980E00E941E1672C180E037
:100F70000E94E915112309F46CC1812F0E943919CF
:100F80000E94401966C1002381F080918205AA2049
:100F900051F0E1E0AE1207C0182B181709F459C13F
:100FA0001093820556C1812B10C0AA2021F0F1E0D8
:100FB000AF1609F44EC10E9433191FC0002341F03F
:100FC00021E02A1508F445C1812F0E94DF1541C197
:100FD000A1103FC112C0002319F0AA20A9F327C114
:100FE000AA2059F0893309F031C18FEF97EEA3E0C1
:100FF00081509040A040E1F727C1812F0E94D81571
:1010000028C1812F86958695837019F0813061F013
:1010100020C1002321F08B2D912F937002C080E01E
:1010200090E00E94AC1C1BC1002321F08B2D912F5E
:10103000937002C080E090E00E94961C10C18B2D3E
:10104000002319F00E94F81D02C00E94411D0E9459
:101050001A1D05C1812F8370A9F50111FEC04B2D0A
:10106000429546954770440F440F8B2D8F7090E04A
:101070009C01042E01C0220F0A94EAF7B4FE08C0B6
:101080008FE090E001C0880F4A95EAF7809501C093
:1010900080E0169516951370123069F088F49091DF
:1010A0008305113019F0822B892302C0922B892BE2
:1010B0000E94BD15D2C0822B909183058927F8CF5D
:1010C000822BF6CF002319F0812F817001C0869505
:1010D000882309F4C2C04B2D429546954770440FB2
:1010E000440F8B2D8F7090E09C01042E01C0220FC5
:1010F0000A94EAF7B4FE08C08FE090E001C0880FC0
:101100004A95EAF7809501C080E016951695137010
:10111000123059F078F490919B05113019F0822B20
:10112000892309C0922B892B06C0822B90919B05A5
:10113000892701C0822B0E947A158FC01F7000235F
:1011400039F0812F0E94B1158B2D0E94DF1585C0CB
:101150008B2D0E94D815812F0E94A4157EC08B2D47
:10116000B2EF9B1669F1B91538F0E0EF9E1659F011
:10117000F1EF9F1601F157C023EF921641F194EF62
:101180009916A9F050C0002369F0A11062C01F7128
:1011900081E090E001C0880F1A95EAF790919B05D5
:1011A00089271FC0A1E0AA1508F453C0F0CF809191
:1011B000A80582FD19C0002329F0812F8F7126C058
:1011C0000023D9F3812F8F710E94A41542C0002300
:1011D00039F01F7181E001C0880F1A95EAF701C04C
:1011E00080E00E947A1535C0002399F01F71812F8D
:1011F0000E94B1158091A80582FF07C0B8E01B9F2F
:10120000C0011124836080935F05812F0E94B11576
:1012100020C081E00E949519E1E0EA15D0F482E057
:101220000E94951916C0002321F0AA2031F28B2DBF
:101230009BCEAA2039F2893349F4FFEF27EE83E0F1
:10124000F15020408040E1F700C000008B2D0E944B
:10125000E91588EF8C0D843010F40E94C21CDD204B
:10126000B1F080915F0580FD12C0D70112961C92EB
:101270008595859585950E94B115C7010E940D053C
:1012800080915F058595859585950E94A41585E0DB
:10129000F701DE01119601900D928A95E1F709811F
:1012A0001A81C8010E941115B8010E9408170FC0C9
:1012B00080915F05877059F0F7018281882339F0AA
:1012C0008091A80582FF03C082E00E949519A5962F
:1012D000EBE00C945A1F8091990487FF11C0809114
:1012E000E80082FD05C08091A5048111F8CF11C0EE
:1012F0008091E8008B770BC08091A504882349F08A
:101300008091E80080FFF8CF8091E8008E7780938D
:10131000E8000895982F973068F59093E9009817A2
:1013200039F07091EC002091ED005091F00003C075
:10133000242F762F50E021FD02C09F5FECCF30912B
:10134000EB003E7F3093EB003091ED003D7F30931A
:10135000ED003091EB0031603093EB007093EC00C6
:101360002093ED005093F0002091EE0027FDE5CF93
:1013700080E008958F708093E90081E008952091C6
:101380009F043091A0042617370748F061157105B6
:1013900039F42091E8002E772093E80001C0B901CC
:1013A000FC0120E06115710579F18091A504882385
:1013B000F1F18530F1F18091E80083FD3CC080912E
:1013C000E80082FD2EC08091E80080FFEBCF2091E5
:1013D000F3008091F20090E0922B6115710551F0BD
:1013E0008830910538F421912093F1006150710902
:1013F0000196F3CF21E0089709F020E08091E80002
:101400008E778093E800CECF2111CFCF0AC0809194
:10141000A504882361F0853061F08091E80083FDA8
:101420000AC08091E80082FFF2CF80E0089582E058
:10143000089583E0089581E008950895BC0184E053
:101440000E94D91B0895BC0183E00E94D91B089516
:10145000F9012281A091A104B091A204211103C03D
:10146000A817B907C9F086E04802A0011124CD01F0
:10147000841B950B6817790779F086E001900D922F
:101480008A95E1F78091A1049091A204480F591F19
:101490005093A2044093A1040895AAE2B0E0E3E5CA
:1014A000FAE00C94461FE9E9F4E081EA94E0209127
:1014B000F10021938E179F07D1F780919A04833012
:1014C00009F463C030F4813071F0823009F49DC0BA
:1014D000B4C08A3009F489C08B3009F46EC08930F9
:1014E00009F0ABC020C080919904813A09F0A5C0F1
:1014F0008091E800877F8093E80080919D0490911F
:101500009E04892B21F460E286E794E003C060E04A
:1015100080E090E070E00E94BF098091E8008B7746
:101520008093E8008AC080919904813209F085C0D7
:1015300080919D0490919E04009719F0039709F003
:101540007CC08091E800877F8093E8008091E8006C
:1015500082FD05C08091A5048111F8CF6EC0209155
:10156000F3008091F20090E0922B029731F4809189
:10157000F100813011F0863021F48091F1008093E8
:1015800075048091E8008B7754C080919904813A6A
:1015900009F053C080919D0490919E04892B09F01D
:1015A0004CC08091E800877F8093E8008091E8003C
:1015B00080FFFCCF80910E0137C080919904813269
:1015C000E1F580919D0490919E04892BB1F5809165
:1015D000E800877F8093E8000E946B0980919B045C
:1015E00080930E010E94C21528C080919904813217
:1015F00021F58091E800877F8093E8000E946B09C5
:1016000080919C048093740418C080919904813A5D
:10161000A1F48091E800877F8093E8008091E80042
:1016200080FFFCCF809174048093F1008091E800EA
:101630008E778093E8000E946B098091E80083FF19
:10164000E4C18091990490919A04492F50E04A3066
:10165000510508F0DAC1FA01E059FF4F0C949920C6
:10166000803821F0823809F0D0C108C080919604FA
:1016700090919704992389F082600FC080919D0416
:101680008F70873008F0C1C18093E9008091EB0032
:1016900085FB882780F91092E9009091E800977FF8
:1016A0009093E8008093F1001092F10070C1282F10
:1016B0002D7F09F0AAC1882319F0823061F0A5C1FD
:1016C00080919B04813009F0A0C1933009F080E043
:1016D000809397042EC080919B0481112AC0809131
:1016E0009D048F702FEF280F263008F08EC1809355
:1016F000E9002091EB0020FF1CC0933021F4809181
:10170000EB00806214C09091EB0090619093EB002D
:1017100021E030E0A90102C0440F551F8A95E2F78D
:101720004093EA001092EA008091EB008860809379
:10173000EB001092E9008091E800877F8093E80039
:101740000E946B0962C1811160C110919B041F77D7
:101750008091E3008078812B8093E3008091E80002
:10176000877F8093E8000E946B098091E80080FFEA
:10177000FCCF8091E30080688093E300111102C0E8
:1017800082E001C083E08093A5043FC1805882308D
:1017900008F03BC120919B0430919C042C3D53E008
:1017A000350779F583E08A838AE289834FB7F89415
:1017B000DE01139620E03EE051E2E32FF0E050938B
:1017C0005700E49120FF03C0E295EF703F5FEF7098
:1017D0008E2F90E0EA3010F0C79601C0C0968D932E
:1017E0009D932F5F243149F74FBF8091E800877F99
:1017F0008093E8006AE270E0CE0101960E94BF0982
:10180000B4C080919D0490919E04432F552743308E
:101810005105A9F068F44130510509F405C1423081
:10182000510509F0F2C084E790E0EAE0F2E04BC035
:101830004132510529F14232510589F1E6C0C90111
:10184000992781309105A1F058F0029709F0DDC089
:10185000E0E9F2E0E4918E2F90E0E0E9F2E030C0C0
:10186000E2EDF2E0E4918E2F90E0E2EDF2E028C0AC
:10187000E8EAF2E0E4918E2F90E0E8EAF2E020C09E
:101880008430910508F0C1C0880F991FFC01E75D05
:10189000FE4F0190F081E02D89E090E014C084308B
:1018A000910508F0B2C0FC01EE0FFF1FEF5DFE4F87
:1018B0000190F081E02DDC01A35EBE4F8C9190E0A1
:1018C000009709F4A2C02091E800277F2093E80048
:1018D00020919F043091A0042817390708F4C9010A
:1018E00040E0009789F12091A504222309F43DC02E
:1018F0002530D9F12091E80023FD37C02091E80080
:1019000022FD2FC02091E80020FFEBCF4091F30093
:101910002091F20030E0342B009759F02830310547
:1019200040F444914093F100319601972F5F3F4F6F
:10193000F3CF41E02830310509F040E02091E80084
:101940002E772093E800CDCF4111CDCF0AC08091F2
:10195000A504882351F0853041F08091E80083FD93
:1019600004C08091E80082FFF2CF8091E8008B777D
:101970008093E8004AC0803809F047C08091E800B1
:10198000877F8093E800809198048093F100809194
:10199000E8008E77D3CE811138C080919B0490915E
:1019A0009C04992702978CF58091E800877F8093AB
:1019B000E80010919B04109398040E946B09111188
:1019C00006C08091E30087FD02C081E001C084E091
:1019D0008093A50442E061EC81E00E948A0942E024
:1019E00061EC82E00E948A0942E261EC85E00E949B
:1019F0008A0942E261EC83E00E948A0942E260ECDB
:101A000084E00E948A098091A5048091E80083FF08
:101A100010C08091E800877F8093E8008091EB0000
:101A200080628093EB0005C082E190E0EEE7F2E097
:101A30004ACFAA96E3E00C94621F1F920F920FB652
:101A40000F9211242F933F934F935F936F937F9344
:101A50008F939F93AF93BF93CF93DF93EF93FF93B6
:101A6000C091E900CF708091EC00D82FD17080FD3B
:101A7000D0E81092E9008091F000877F8093F00019
:101A800078940E944D0A1092E9008091F0008860DD
:101A90008093F000CD2BCF70C093E900FF91EF91C0
:101AA000DF91CF91BF91AF919F918F917F916F9176
:101AB0005F914F913F912F910F900FBE0F901F900C
:101AC0001895E8EDF0E080818E7F80831092E2002F
:101AD0001092DA001092E100A0EEB0E08C918160EB
:101AE0008C9380818F77808319BCA7EDB0E08C91B7
:101AF0008E7F8C9380818F7E8083109273040895F3
:101B0000A0E0B0E0E6E8FDE00C94411FC8EDD0E0B5
:101B100088818F7E8883E7EDF0E08081816080831B
:101B200084E082BF81E08093730488818E7F888304
:101B300002EE10E0F80110821092DA0081EEC82E59
:101B4000D12CF601108288818F7788838881806804
:101B5000888388818F7D888319BC1092A504109298
:101B60009804109297041092960490EEE92EF12CAE
:101B7000F70180818B7F808388818160888342E048
:101B800060E080E00E948A09F60180818E7F808378
:101B9000F801808181608083808188608083F70183
:101BA00080818E7F8083888180618883CDB7DEB716
:101BB000E8E00C945D1F1F920F920FB60F92112454
:101BC0002F933F934F935F936F937F938F939F9345
:101BD000AF93BF93EF93FF938091E10082FF09C021
:101BE0008091E20082FF05C08091E1008B7F8093AD
:101BF000E1008091DA0080FF2AC08091D80080FF48
:101C000026C08091DA008E7F8093DA008091D9001F
:101C100080FF18C080E189BD82E189BD09B400FE62
:101C2000FDCF81E08093A5048091730481110FC0E2
:101C30000E94610D0E94800D8091E200846080937B
:101C4000E20005C019BC1092A504109273048091A3
:101C5000E10080FF17C08091E20080FF13C08091F7
:101C6000E2008E7F8093E2008091E20080618093A9
:101C7000E2008091D80080628093D80019BC85E092
:101C80008093A5048091E10084FF30C08091E20040
:101C900084FF2CC080E189BD82E189BD09B400FECA
:101CA000FDCF8091D8008F7D8093D8008091E10096
:101CB0008F7E8093E1008091E2008F7E8093E2002E
:101CC0008091E20081608093E200809198048823F3
:101CD00011F084E007C08091E30087FD02C081E03D
:101CE00001C083E08093A5048091A5048091E10068
:101CF00083FF27C08091E20083FF23C08091E10031
:101D0000877F8093E10082E08093A504109298047D
:101D10008091E1008E7F8093E1008091E2008E7FD0
:101D20008093E2008091E20080618093E20042E0D3
:101D300060E080E00E948A098091F00088608093D2
:101D4000F000FF91EF91BF91AF919F918F917F91A3
:101D50006F915F914F913F912F910F900FBE0F9018
:101D60001F9018952091E4003091E50095E6409190
:101D7000EC00842F817040FF23C08091E80080FD3B
:101D80001DC08091A504882399F0853099F0809139
:101D9000EB0085FD11C04091E4005091E50024174F
:101DA000350729F3915011F09A01E1CF84E00895AD
:101DB00082E0089583E0089581E0089580E0089529
:101DC0004091E80042FFDDCF0895EF92FF920F931C
:101DD0001F93CF93DF937C018B010E94B20E811180
:101DE00019C0E70101151105A1F08091E80085FDFA
:101DF0000AC08091E8008E778093E8000E94B20EBE
:101E0000882381F307C089918093F1000150110963
:101E1000E9CF80E0CDB7DEB7E6E00C945F1FCF934B
:101E20002091A504243029F5C091E900CF703091AC
:101E3000EC00232F217030FD20E8C22B23E02093FB
:101E4000E9002091E80020FF11C040E050E060E28E
:101E500070E00E94E50E882321F01092A3041092F6
:101E6000A4048091E8008E778093E800CF70C0933F
:101E7000E900CF910895ACE5B0E0E1E4FFE00C9417
:101E80003A1F85B7806885BF85B7806885BF84B7EE
:101E9000877F84BF0FB6F894A89580916000886111
:101EA00080936000109260000FBE90E080E80FB653
:101EB000F89480936100909361000FBE83EC96E1EB
:101EC00090936F0180936E010E94610D0E94800DBE
:101ED0008091E20084608093E20078948091A50470
:101EE0008823A1F01091E9001F709091EC00892FD8
:101EF000817090FD80E8182B1092E9008091E80035
:101F000083FD0E944D0A1F701093E90082E084BD9A
:101F100093E095BD9AEF97BD80936E000E94770382
:101F200090E090931C0180931B010E94B2040E94D8
:101F3000F804ECEAF4E0ACEBB4E011921D9224E07A
:101F4000EA3BF207D1F78EE090E00E949F20809359
:101F5000A6049093A704FC010E961192E817F907C6
:101F6000E1F789EA8093800089E0809381002498DA
:101F70002C983F988AB18F7C8AB96E98479A8BB11A
:101F800080638BB9769A8FE090E00E94E21F6093A5
:101F9000A8047093A9048093AA049093AB0467707B
:101FA0003FEF639FB001112475956795759567950F
:101FB0007727709389006093880070938B006093FB
:101FC0008A0070938D0060938C000E94EE0380E085
:101FD00090E00E94E81F883E9E4F11F00E94BD18BD
:101FE00082E090E00E94DA1F8093CA0484E090E0CF
:101FF0000E94DA1F182F82E290E00E94DA1F212F40
:1020000030E0382B3093A8052093A70583E090E0BB
:102010000E94DA1F0E94BD1580919B050E944D030E
:102020008FE091E090939F0580939E0508E110E07A
:102030007AECE72E74E0F72E8091A504853009F044
:1020400055C040E4B42E50E1C52E62E1D62E8091F9
:10205000A504853009F046C08091A504843009F1BB
:102060001092A2050FB6F894A895009360000FBED9
:10207000B092600083B7817F846083BF83B7816043
:1020800083BF7894889583B78E7F83BF0FB6F8940B
:10209000A895809160008861809360001092600034
:1020A0000FBE80919704882391F20E94770390E0FD
:1020B00090931C0180931B010E94B2040E94F804BB
:1020C000ECEBF4E0119284E0EA3CF807D9F70E94C7
:1020D000411AECEBF4E0819181116FC2EE16FF061C
:1020E000D1F7B5CF0E94C2150E94C21C0E94411AAE
:1020F0003BECA32E34E0B32E29ED34E0ACEBB4E09E
:10210000F50191918D9189272E173F0719F08823AA
:10211000C1F332C0811130C00E94391C6C01809122
:10212000BA049091BB04C816D90609F474C08FEFA5
:1021300064968FAF649765968FAF659766961FAE6E
:1021400066970E94391C8160782F68969FAF8EAF8A
:10215000689764964FAD649765965FAD6597669690
:102160006FAD669768968FAD68970E949C02D0927B
:10217000BB04C092BA044FC02CEB822E24E0922EF6
:10218000D12CF40151904F01F5016080652489F153
:10219000C12C77247394862D872121F16996CFAEC7
:1021A00069976A96DFAE6A9791E0852D872109F4D9
:1021B00090E06B969FAF6B970E94391C8160782FDF
:1021C0006D969FAF8EAF6D9769964FAD69976A9682
:1021D0005FAD6A976B966FAD6B976D968FAD6D9790
:1021E0000E949C02C394770CF6E0CF12D4CFF50185
:1021F0005082D394FFEFAF1ABF0A2EE0D212C1CFA4
:102200008FB7F8944091A3055091A4056091A5055E
:102210007091A6058FBF85E0E6E9F5E0DE01119635
:1022200001900D928A95E1F710929705109298050A
:102230001092990510929A05DA80D11004C08B8112
:10224000882309F452C080919405909195050E94CD
:102250002A1C9C0190919005992309F4C4C12B304C
:10226000310508F442C09F3F19F09F5F909390059D
:10227000DD2061F00E94D81D1D1414F491E001C00E
:102280009FEF899F802D112480939705DB80DD20AF
:1022900061F00E94D81D1D1414F491E001C09FEF5D
:1022A000899F802D112480939805309197053323C1
:1022B000E1F0209198052223C1F045EB3403C001E1
:1022C0001124992319F09093970503C081E080931E
:1022D000970535EB2303C0011124992319F090933E
:1022E000980503C081E080939805DC80D11004C07C
:1022F0008D81882309F452C08091920590919305B5
:102300000E942A1C9C0190918F05992309F46FC1AA
:102310002D33310508F442C09F3F19F09F5F909321
:102320008F05DD2061F00E94B81D1D1414F491E0AA
:1023300001C09FEF899F802D112480939905DD8036
:10234000DD2061F00E94B81D1D1414F491E001C05D
:102350009FEF899F802D112480939A0530919905D4
:102360003323E1F020919A052223C1F045EB340399
:10237000C0011124992319F09093990503C081E0BD
:102380008093990535EB2303C0011124992319F09B
:1023900090939A0503C081E080939A0545E050E050
:1023A000BE016F5F7F4F86E995E00E94C021892BB7
:1023B000A9F48091970581110FC080919805811132
:1023C0000BC080919905811107C081E090919A0519
:1023D000911103C080E001C081E080FD0E941A1DC0
:1023E00085E0FE013196A6E9B5E001900D928A954F
:1023F000E1F70E94C21C9091D904891769F080937B
:10240000D9048FB7F8944091A3055091A405609129
:10241000A5057091A6058FBF8091A504843009F0B1
:102420000BCE8093E9008091E80082FF05CE809179
:10243000E80085FF24C00E94B20E81111EC090E208
:10244000C92ED12C5E0141E2A40EB11C09C08091BD
:10245000F100F50181935F01F1E0CF1AD10869F035
:102460008091E80085FDF3CF8091E8008B77809321
:10247000E8000E94B20E882399F391E001C090E039
:102480008091E8008B778093E800992309F4D4CDFC
:1024900089A18130E9F158F1823021F0843009F4CA
:1024A00080C0CACD8BA19AA19093DA048093DB04FB
:1024B0008DA19CA19093DC048093DD048FA19EA14B
:1024C0009093DE048093DF0442E150E063E270E029
:1024D000CE018F5B9F4F0E94CA1F84E0898381E0F9
:1024E0008093A4048EEF8A831092A3040CC01982F7
:1024F0008CE0E1E3F1E0DE01129601900D928A9505
:10250000E1F78EEF8D87CE0101960E940F0F94CDDB
:1025100080EEC82E84E0D82E0E94FA1CF60181932A
:1025200091936F01F6EECF16F4E0DF06A9F781E094
:1025300089839091E0049A839091E1049B83909128
:10254000E2049C839091E3049D839091E4049E8334
:102550009091E5049F839EEF98878093A304CE011A
:1025600001960E940F0F42E150E063E270E0CE015D
:1025700001960E94CA1FFE01319682E183301CF051
:102580009189928B01C0128A815031978F3FB1F7A8
:1025900042E150E063E270E0CE0101960E94EE1F3E
:1025A0004BCD8091A404882309F446CD80E00E949D
:1025B0007A158AA10E94B1153FCDC9BCD9BC09B416
:1025C00000FEFDCF8091D8008F7D8093D800809150
:1025D000E00082608093E0008091E00081FDFCCF0C
:1025E0000E94C21534CD232B09F03FCE7ECE232B83
:1025F00009F094CED3CE80E090E00E94AC1C80E045
:1026000090E00E94961C109280050E944019E6E915
:10261000F5E085E0DF011D928A95E9F710929005BB
:1026200010928F05109291050E941A1D0895CF9265
:10263000DF92FF920F931F93CF93DF936C01009172
:102640009B0580918305082BC7E0D0E010E0C8010E
:102650000C2E02C0959587950A94E2F780FD04C080
:102660002197A8F7F12C09C0FC2EB6018C2F0E94EF
:1026700008170E942117019799F38F2DDF91CF91B1
:102680001F910F91FF90DF90CF900895CF93DF932C
:10269000EC010E941713BE010E9408170E94211727
:1026A000DF91CF910895CF93FC01808191812381A7
:1026B0003481232B31F09F3F31F491E08F3F19F4A7
:1026C00003C091E001C090E0C92FC17090FD1CC013
:1026D000808191810E94461392959F70963079F087
:1026E00010F4925001C09A50923088F4803F71F0FB
:1026F00018F4883E60F40AC0843F49F407C0883E5D
:1027000028F0813F21F402C0C0E001C0C1E08C2F5D
:10271000CF910895A1E1B0E0E0E9F3E10C943E1F10
:102720008C0185E0F801DE011D9601900D928A95DD
:10273000E1F7F801E280909127056091280540912A
:102740002A0550912B054115510531F06F3F31F4A9
:1027500081E09F3F19F403C081E001C080E0F82FC1
:10276000F1709F2E80FD1BC1F80130812181C38053
:10277000D48087E2A82E85E0B82EF0902905F601D6
:10278000E41BF50BFF2009F4C7C080912C05E83C41
:10279000F10508F092C0482F407F09F051C0621344
:1027A00011C093130FC0FE2CE1100CC08F7080611C
:1027B00080932C05C5010E940D0580912C05F80120
:1027C00085832AC1C114D10431F02F3F31F481E057
:1027D0003F3F19F403C081E001C080E080FD03C0E9
:1027E00081E08E2502C080E090E0F82FF170FF2E8E
:1027F00080FF1CC080915E0540912D0556E0841736
:1028000009F4E8C090E0589FF001599FF00D1124A1
:10281000E25DFA4F6181261306C06081631303C035
:102820006281E61203C001968770E9CFFE2CEE208C
:1028300009F4F2C080912C05816080932C0549C079
:10284000621306C0931304C0E11002C0F80186C0F1
:10285000C8010E945313882351F1EE2041F12091C9
:102860002C05822F82958F7090E0029774F08091F2
:1028700027059091280598878F831986DB86CA865D
:102880002C87CE0107960E940D0586E0F801A7E28D
:10289000B5E001900D928A95E1F70E94D8190AC01F
:1028A0006217C9F0C8010E94531381111EC0C801EC
:1028B0000E940D05FF24F394AFC0482F407F81F79D
:1028C00087E295E00E940D0586E0F50111928A9558
:1028D000E9F7F12CA1C09313E5CFE110E3CFF801A4
:1028E0008583C8010E940D0554C0EE2001F320919C
:1028F0002C05822F82958F7090E0029734F28091A0
:102900002705909128059A8389831B82DD82CC82DA
:102910002E83CE010196B7CFE83CF105D0F5FE2C11
:10292000EE2029F2621327C0931325C020912C05B5
:1029300020FD18C0822F82958F70482F50E04115DE
:10294000510581F0F80125834F30510541F08F5F2B
:10295000982F9295907F822F8F70892B8583C80145
:102960000E940D0586E0F801A7E2B5E001900D9206
:102970008A95E1F751C0C8010E945313811185CF98
:1029800080912C05816080932C05C8010E940D0563
:1029900043C086E0F50111928A95E9F73DC0EE202B
:1029A00009F485CFC8010E945313F82E882309F437
:1029B0007ECF86E0F801A7E2B5E001900D928A95FE
:1029C000E1F780912705909128050E9446130E9407
:1029D000D81922C03D872E878D859E850E9446137B
:1029E000292F22952F70223028F49F7039F0811101
:1029F00005C00BC0243028F49F7049F4805E8830F5
:102A000020F0C8010E940D059F2CF92C05C0F8018B
:102A10009581907F99F7F9CF8F2D6196EBE00C941B
:102A20005A1F292F9E3078F5863068F590E036E001
:102A3000239F800D911D1124682F677023E09695C8
:102A400087952A95E1F7FC01EE0FFF1FE80FF91FAC
:102A5000EA51FB4F40E050E080E0219130E0062E4B
:102A600002C0369527950A94E2F721703327042E89
:102A700001C0220F0A94EAF7822B4F5F5F4F433069
:102A8000510559F7089580E00895292F9E3088F563
:102A9000863078F590E036E0239F800D911D11245B
:102AA000282F277051E001C0550F2A95EAF723E03F
:102AB000969587952A95E1F7FC01EE0FFF1FE80F29
:102AC000F91FEA51FB4F20E030E070E04081CB017C
:102AD000022E02C0969587950A94E2F7817081953F
:102AE00084278523842781932F5F3F4F233031052F
:102AF00069F70895A0E2B0E0E0E8F5E10C94461F24
:102B00000E944D03182F8091A4048823A9F02FEF71
:102B100080E792E0215080409040E1F700C0000043
:102B200085E08983812F0E9439038A838EEF8B830E
:102B3000CE0101960E940F0F10939B050E94FB127D
:102B4000A096E3E00C94621F21E030E001C0220F68
:102B50008A95EAF7209580919B0582230E947A1539
:102B6000089521E030E001C0220F8A95EAF78091B4
:102B70009B05822B0E947A150895809383050E94FD
:102B8000FB1208951092810580910E01882331F087
:102B90008091A70587FF02C08EE101C086E0E9E0D1
:102BA000F5E0DF011D928A95E9F70E94FB12089576
:102BB000882321F00E9439190E9440190895882322
:102BC00039F090918105892B809381050E944019ED
:102BD0000895882391F19CEF980F913A30F4682F73
:102BE00087E095E00E946E1C0DC090E2980F98302F
:102BF00060F4877091E001C0990F8A95EAF7892FF8
:102C00000E9439190E94401908959BE5980F93304E
:102C100028F480E090E00E94AC1C089598E5980F9D
:102C2000973128F480E090E00E94961C08958D3E34
:102C300020F00E94411D0E941A1D0895CF93882301
:102C400009F49FC0C82F8CEF8C0F813A08F05BC04D
:102C500080910E018823E1F08091A70587FF18C0BD
:102C6000EC2FE695E695E695F0E0E95FFA4F828174
:102C7000282F30E04C2F477081E090E002C0880F91
:102C8000991F4A95E2F782239323892B59F411C0A7
:102C9000E9E0F5E08191C81729F085E0EF30F80709
:102CA000C9F707C06C2F87E095E00E946E1C0E9458
:102CB000401980910E018823B1F08091A70587FF0C
:102CC00012C0EC2FE695E695E695F0E0E95FFA4F45
:102CD000C77081E090E001C0880FCA95EAF7928141
:102CE000892B828320C0A9E0B5E0EFEF80E09D91C1
:102CF000C917C9F0EF3F19F4911101C0E82F8F5F98
:102D00008630A9F735C080E28C0F883078F4C77020
:102D100081E090E001C0880FCA95EAF790918105A3
:102D2000892B809381050E9440192BC0EBE5EC0FA5
:102D3000E33040F4F0E0E35CFE4F808190E00E94DD
:102D4000AC1C1FC0E8E5EC0FE73150F4F0E0EE0FEB
:102D5000FF1FE05CFE4F808191810E94961C11C094
:102D6000CD3E78F08C2F0E94F81D0E941A1D09C0DC
:102D7000EF3FC9F20E2E000CFF0BE95FFA4FC28342
:102D8000D2CFCF91089580E008959091A70592FF4A
:102D90000DC0282F2871283019F4877F846006C061
:102DA000282F2471243011F48B7F886093FF0DC08D
:102DB000282F2871283119F4877E846106C0282FB6
:102DC0002471243111F48B7E88612091A80520FFA5
:102DD0000DC0382F3871383019F4877F816006C0F4
:102DE000382F3171313011F48E7F886021FF0DC092
:102DF000282F2871283119F4877E816106C0282F79
:102E00002171213111F48E7E886194FD877E0895B1
:102E10007E30A0F4663090F494E5899FF00111248F
:102E200086E0789FE00DF11D1124E60FF11DEE0FF5
:102E3000FF1FEA52FD4F85919491089580E090E044
:102E40000895CF93DF938238910569F1B0F481330F
:102E5000910509F477C048F48932910509F469C0F5
:102E60008A32910509F473C092C08533910509F443
:102E70005BC089339105B9F08AC0833E910591F119
:102E800038F4803E9105D1F0823E910531F17FC04A
:102E9000863E9105D9F1873E9105E9F1843E910581
:102EA00009F075C028C02091A70520FD5BC021FD59
:102EB00059C02091A80523FD61C069C08091A70574
:102EC00080FD4AC08091A80580FF4CC08091A70575
:102ED00084FD4EC183EE90E04DC18091A70582FF35
:102EE0003EC0F4CF8091A70582FD39C08091A8052E
:102EF00080FD38C0EBCF8091A80581FF39C080915B
:102F0000A70584FD35C187EE90E034C18091A70507
:102F100083FF2BC0F4CF8091A70583FD26C080914D
:102F2000A80581FD25C0EBCF8091A70585FD26C0B2
:102F300022C08091A70585FD1EC08091A80583FF52
:102F40001DC00AC08091A70586FD1BC01DC08091D1
:102F5000A70586FD19C015C089E390E00BC182EE7C
:102F600090E008C180EE90E005C186EE90E002C1DD
:102F700084EE90E0FFC085E390E0FCC089E290E041
:102F8000F9C08AE290E0F6C081E390E0F3C08115D9
:102F900031E5930708F061C0811520E59207B0F094
:102FA0009C012370332741E050E002C0440F551FBD
:102FB0002A95E2F7282F2695269580E2289F9001F2
:102FC0001124CA01822B932B9D68D4C0883E9105A1
:102FD00068F5803E910508F0CDC0883A9105B8F4B7
:102FE000853A910548F0855AE82FF0E0E35CFE4F02
:102FF000808190E09064BEC08130910509F4B5C035
:1030000008F4B6C08430910508F4B2C0B3C08F3B59
:10301000910508F0ADC0885AE82FF0E0EE0FFF1FD1
:10302000E05CFE4F808191819464A4C0811530E200
:10303000930758F4811521E0920708F09BC08D3E5C
:10304000910508F495C0906595C0811530E493070B
:1030500008F48EC09F70906A8DC0811525E5920797
:1030600008F042C0811534E5930728F0982F88278F
:10307000846F906A7FC0811523E59207B0F09C01B0
:103080002370332741E050E002C0440F551F2A95BA
:10309000E2F7282F2695269580E2289F900111249B
:1030A000CA01822B932B9A6865C0811532E593077C
:1030B00028F4982F8827816F906A5CC09C01237048
:1030C000332741E050E002C0440F551F2A95E2F734
:1030D000282F2695269580E2289F90011124CA0169
:1030E000822B932B9C6846C0EC01C11589E5D8075B
:1030F000B0F4C11528E5D20728F09C2F8827806FEF
:10310000906A38C0C11536E5D30790F58C2F0E9420
:10311000C5168F7190E0982F882790622BC0C1153B
:103120008AE5D80790F48C2F8F700E94C51694E022
:10313000D695C7959A95E1F7CF70D0E0DC2FCC27D4
:10314000D0699E01282BC90115C0CE01905681156A
:10315000904270F48D2F8F710E94C516282F2F7109
:10316000CE0199279062922B05C081E090E002C0C9
:1031700080E090E0DF91CF91089568EE7EEF80E0EF
:1031800090E00E941C2060E082E090E00E94FE1F20
:1031900060E083E090E00E94FE1F1092830560E0F3
:1031A00084E090E00E94FE1F64E082E290E00E94D2
:1031B000FE1F60E085E090E00E94FE1F60E086E078
:1031C00090E00E94FE1F6FEF87E090E00E94FE1FDC
:1031D00040E050E0BA0188E090E00E94102060E0FA
:1031E0008DE090E00E94FE1F40E050E0BA0188E1CF
:1031F00090E00E94102060E087E190E00E94FE1FB6
:1032000040E050E0BA018CE190E00E94102060E0C4
:1032100070E080E290E00E941C2040E050E0BA01A3
:1032200088E190E00E9410201092A8041092A90456
:103230001092AA041092AB0484E08093A8044091F9
:10324000A8045091A9046091AA047091AB048FE086
:1032500090E00E94102040E050E0BA0183E190E04D
:103260000E9410200895809182058111109282059C
:103270000895809590918105892380938105089513
:103280009091810580918005982B909307058091FE
:1032900082058823D9F0892B8093070580910E0140
:1032A000882331F08091A70587FF02C08EE101C01D
:1032B00086E0E9E0F5E090E0815028F021912223BA
:1032C000D9F39F5FF9CF91110E94331940E250E08A
:1032D00060E675E087E095E00E94C021892B21F12E
:1032E00080E2E7E0F5E0A0E6B5E001900D928A9576
:1032F000E1F7E0919E05F0919F053097A9F080914C
:103300000E01882359F08091A70587FF07C080919F
:1033100007058093080586E0809307050280F38106
:10332000E02D87E095E00995089520915F0580954F
:10333000822380935F05982F977099F430E0482F8F
:10334000082E000C550B2417350759F09091A8054D
:1033500092FF07C08595859585950E94A4151092CA
:103360005F050895CF93C091A805C2FB992790F9F6
:10337000981791F080FBC2F9C093A8056091A7054A
:1033800084E090E00E94FE1F6C2F82E290E00E9499
:10339000FE1F82E00E949519CF91089580915E05ED
:1033A00090912D05891719F08F5F8770FBCF0895D5
:1033B0000F931F93CF93DF9380912C0582958F708D
:1033C00009F05AC080912905882309F455C08091DD
:1033D0005E0510912D056091270570912805C0911B
:1033E0002A05D0912B0591E06F3F09F090E0292F3D
:1033F00006E0811709F440C0209721F07F3F21F0BB
:1034000030E003C031E001C0322F90E030FD31C028
:10341000089FF001099FF00D1124DF01A25DBA4F52
:1034200011963C911197371324C03C91361321C05B
:1034300012963C91129731111CC013964D915C91DC
:1034400014974C1B5D0B483C510598F480912C055A
:103450008F70806180932C05ED5CFA4F80818F70B6
:103460008061808387E295E00E940D050E94CE195D
:1034700003C001968770BDCFDF91CF911F910F914F
:103480000895A0E0B0E0E7E4FAE10C94411F8091D8
:103490001B0190911C01892B91F0809184058F5F15
:1034A0008093840581110BC00E94770390E0909374
:1034B0001C0180931B01892B11F40E94EE030CEA7E
:1034C00014E07801D0E0C0E087E0C82ECC0E8C2F4D
:1034D0000E945E048C2D0E945E048C2F0E94C10409
:1034E0008F73F7019081891721F08083DD24D394B5
:1034F00001C0D12C8C2D0E94C1048F73F7019781DC
:10350000891719F0878381E001C080E0D82ADD297E
:103510000E94B204CF5FFFEFEF1AFF0AC730A1F697
:1035200010928905C0918805CC2309F4D5C00E946A
:10353000391C2091860530918705AC01421B530B45
:103540009A0190938705809386054F3F510509F0B6
:1035500018F4452B19F102C02FEF30E010928805C6
:1035600010928505E091A604F091A704AF01425F97
:103570005F4F90E030E08081882341F0281718F0F9
:1035800010829C2F03C0821B80833C2F3196E4174E
:10359000F50789F73093880590938505DD2309F4B5
:1035A0008CC0E091A604F091A704809189059091C8
:1035B0008805ACEBB4E0AF01425F5F4F68E2E80121
:1035C00028813C91321779F0308131110CC0608331
:1035D0002C9398819227282F30E0292B81E0232BF0
:1035E00009F480E091E0319611960F5F1F4FE417C8
:1035F000F50729F78093890590938805C09189057F
:103600002091A30480918D0590918E052223C9F10C
:10361000892B31F425982D9826982E9827982F9845
:1036200080918D0590918E059170892B79F4809110
:103630008C05882319F026982E9802C0269A2E9A77
:1036400090918C0581E0892780938C0580918D0570
:1036500090918E058130984750F01092A30480918C
:103660009B050E944D0310928E0510928D0580914E
:103670008D0590918E05019690938E0580938D0512
:103680000AC0892B41F010928E0510928D05809111
:103690009B050E944D0380918B05882309F1259895
:1036A0002D9880918A058F5F80938A05853610F06A
:1036B000259A2D9A0E94391C13C081E090918505AE
:1036C000992309F49BCF81116CCF0E94391C9093F0
:1036D00087058093860565CFD111F7CF80E0EECFC7
:1036E0008C2FCDB7DEB7E8E00C945D1F8091750498
:1036F000089522E02093E9002FEF3091E800215057
:1037000035FD06C035ED3A95F1F700002111F5CFF2
:103710002091E80025FF0BC040E050E065E070E03C
:103720000E94E50E8091E8008E778093E80008956E
:10373000CF93DF9320910E01222339F02091A7052A
:1037400027FF03C060E225E002C068E021E020938B
:10375000E9002FEF3091E800215035FD06C035ED2E
:103760003A95F1F700002111F5CF2091E80025FFEF
:103770001DC0EC0180910E01811105C040E050E0B8
:1037800068E070E003C070E040E050E0CE010E94CD
:10379000E50E8091E8008E778093E80080E2FE01DC
:1037A000A6E7B4E001900D928A95E1F7DF91CF9101
:1037B00008958093A9057093AB056093AA05809145
:1037C000A504843001F585E08093E9008FEF9091A6
:1037D000E800815095FD06C095ED9A95F1F700003F
:1037E0008111F5CF8091E80085FF0DC040E050E0E9
:1037F00063E070E089EA95E00E94E50E8091E800C0
:103800008E778093E800089578941F920F920FB6F8
:103810000F9211248F939F93AF93BF938091A30531
:103820009091A405A091A505B091A6050196A11DB2
:10383000B11D8093A3059093A405A093A505B09313
:10384000A605BF91AF919F918F910F900FBE0F90E2
:103850001F9018959C014FB7F8948091A305909103
:10386000A405A091A505B091A6054FBF821B930B9F
:1038700008952FB7F8948091A3059091A405A09185
:10388000A505B091A6052FBF08951F920F920FB600
:103890000F9211248F939F93AF93BF938091A205B2
:1038A000811113C08091A3059091A405A091A50555
:1038B000B091A6054196A11DB11D8093A3059093DB
:1038C000A405A093A505B093A605BF91AF919F91C4
:1038D0008F910F900FBE0F901F90189520910E01A1
:1038E0002223C9F02091A70527FF15C0262F269572
:1038F000269526952E31C8F4FC01E20FF11D677064
:1039000081E090E001C0880F6A95EAF78095928186
:10391000892382830895FC0106962281621301C0E7
:1039200012823196E817F907C1F708952091A00592
:103930003091A1052817390771F09093A105809364
:10394000A005E0919E05F0919F05309721F000843D
:10395000F185E02D0995089520919C0530919D05F4
:103960002817390771F090939D0580939C05E0918D
:103970009E05F0919F05309721F00680F781E02D9C
:1039800009950895E0919E05F0919F05309729F0E3
:103990000190F081E02D0995089580E00895CF927F
:1039A000DF92FF920F931F93CF93DF93EC016B0194
:1039B000042FF0909B050E94C21580E00E947A15AA
:1039C00086E0080280011124CC15DD0531F0CE011E
:1039D0000E940D05C00FD11FF7CF0E94C2158F2D79
:1039E0000E947A15DF91CF911F910F91FF90DF9088
:1039F000CF900895CF93DF930E94BA1F66E070E0E6
:103A00000E948520D82F0E94BA1F6EE070E00E94AD
:103A10008520C82F6D2F782F80E00E94081704970B
:103A2000C59718F48D2F9C2F02C00E94FA1CDF91BD
:103A3000CF9108950E94391C20919705211104C04F
:103A400020919805222321F0909395058093940569
:103A500020919905211104C020919A05222321F07B
:103A60009093930580939205E0919E05F0919F05B8
:103A7000309731F00480F581E02D86E995E00995D5
:103A800008958D3E39F49091980597FF35C01092B6
:103A9000980559C08E3E29F4909198051916BCF3EB
:103AA0002BC0909197058F3E29F497FF25C0109267
:103AB000970549C0803F19F41916CCF31DC09091A9
:103AC0009905893F29F41916BCF4109299053BC059
:103AD0008A3F19F497FF10C0F8CF8B3F39F49091CB
:103AE0009A0597FF09C010929A052DC08C3F21F4CA
:103AF00090919A051916BCF39FE0980F983080F4C6
:103B000021E030E0A90102C0440F551F9A95E2F769
:103B1000CA0180959091960589238093960513C0DC
:103B20008D3F21F4809191058E7F0BC08E3F21F453
:103B3000809191058D7F05C08F3F29F4809191057B
:103B40008B7F8093910580919705811106C08091AC
:103B50009805811102C010929005809199058111FC
:103B600006C080919A05811102C010928F050895B8
:103B70008091910580FD18C081FD14C082FD16C0A2
:103B800080918F05882381F0843180F426E0829F24
:103B9000C001112464E170E00E948520862F672B0C
:103BA00019F005C083E0089581E0089586E0089546
:103BB0008091910580FD14C081FD14C082FD16C066
:103BC00080919005882381F0843180F420E7829FE2
:103BD000C001112464E170E00E948520862F0895C1
:103BE0008CE1089588E3089588E0089580E70895BA
:103BF0008D3E21F40E94D81D819504C08E3E29F48B
:103C00000E94D81D8093980508958F3E21F40E944C
:103C1000D81D819504C0803F29F40E94D81D80934F
:103C200097050895893F19F40E94B81D05C08A3F81
:103C300031F40E94B81D81958093990508958B3FBA
:103C400021F40E94B81D819504C08C3F29F40E9484
:103C5000B81D80939A0508959FE0980F983078F4E6
:103C600021E030E0A90102C0440F551F9A95E2F708
:103C7000CA0190919605892B8093960508958D3FF2
:103C800021F48091910581600BC08E3F21F48091D9
:103C90009105826005C08F3F29F480919105846071
:103CA0008093910508951092B9008CE08093B8003C
:103CB0000895A0E0B0E0EFE5FEE10C943E1FB82EC1
:103CC000EB010E94391C6C01C431D10558F0CF3F83
:103CD0008FEFD80759F0CE0164E170E00E94231FF6
:103CE0007B0107C0EE24E394F12C03C025E0E22E13
:103CF000F12C84E8A82E94EA992E1092BC009092A0
:103D0000BC000E94391C8C018091BC0087FD07C05B
:103D1000C8010E942A1CE816F906B0F729C0809154
:103D2000B900887F883041F08091B900887F803168
:103D300019F00FEF1FEF1EC0B092BB00A092BC00A5
:103D40000E94391C8C018091BC0087FD07C0C8010E
:103D50000E942A1CE816F906B0F70AC08091B90043
:103D6000887F883111F0803421F700E010E00EC028
:103D70000EEF1FEFCF3F8FEFD80709F4BECFC6017C
:103D80000E942A1CC817D90708F0B7CFC801CDB7C1
:103D9000DEB7EBE00C945A1F0F931F93CF93DF9382
:103DA000EB018093BB0084E88093BC000E94391C27
:103DB0008C018091BC0087FD0DC0CF3F8FEFD807ED
:103DC000C1F3C8010E942A1CC817D90790F78EEFCB
:103DD0009FEF0CC02091B900287F81E090E028324D
:103DE00011F480E090E0919581959109DF91CF9158
:103DF0001F910F9108950F931F93CF93DF93EC01C1
:103E000084E88093BC000E94391C8C018091BC0026
:103E100087FD0DC0CF3F8FEFD807C1F3C8010E94C7
:103E20002A1CC817D90790F78EEF9FEF03C0809127
:103E3000BB0090E0DF91CF911F910F91089584E92D
:103E40008093BC000895AA1BBB1B51E107C0AA1FA9
:103E5000BB1FA617B70710F0A61BB70B881F991F2B
:103E60005A95A9F780959095BC01CD0108952F92A0
:103E70003F924F925F926F927F928F929F92AF92FA
:103E8000BF92CF92DF92EF92FF920F931F93CF9347
:103E9000DF93CDB7DEB7CA1BDB0B0FB6F894DEBFDE
:103EA0000FBECDBF09942A88398848885F846E8404
:103EB0007D848C849B84AA84B984C884DF80EE804E
:103EC000FD800C811B81AA81B981CE0FD11D0FB657
:103ED000F894DEBF0FBECDBFED0108958F929F9283
:103EE000AF92BF92CF92DF92EF92FF92CF93DF9388
:103EF000EC01688179818A819B8161157105810559
:103F0000910521F464E279ED8BE597E02DE133EF43
:103F100041E050E00E94222049015A019B01AC017E
:103F2000A7EAB1E40E9441206B017C01ACEEB4EF42
:103F3000A50194010E944F20DC01CB018C0D9D1D39
:103F4000AE1DBF1DB7FF03C00197A109B04888830C
:103F50009983AA83BB839F77DF91CF91FF90EF90E6
:103F6000DF90CF90BF90AF909F908F9008950E9468
:103F70006E1F089580E091E00E946E1F0895A0E0FA
:103F8000B0E08093000190930101A0930201B093EF
:103F900003010895DC01CB01FC01F999FECF06C0B5
:103FA000F2BDE1BDF89A319600B40D9241505040F7
:103FB000B8F70895F999FECF92BD81BDF89A992777
:103FC00080B50895A6E1B0E044E050E00C94CC1F29
:103FD000A8E1B0E042E050E00C94CC1FDC01A40F5B
:103FE000B51F4150504048F0CB01840F951F2E91D2
:103FF0000E94FF1F41505040D0F70895262FF99995
:10400000FECF92BD81BDF89A019700B4021639F037
:104010001FBA20BD0FB6F894FA9AF99A0FBE089508
:104020000396272F0E94FF1F0E94FE1F252F0E942C
:10403000FF1F242F0C94FF1F0196272F0E94FF1FA4
:104040000C94FE1F052E97FB1EF400940E9439204D
:1040500057FD07D00E94542007FC03D04EF40C9467
:10406000392050954095309521953F4F4F4F5F4FE8
:10407000089590958095709561957F4F8F4F9F4FD4
:1040800008950E947620A59F900DB49F900DA49F47
:10409000800D911D11240895B7FF0C9441200E94BA
:1040A0004120821B930B0895A1E21A2EAA1BBB1B71
:1040B000FD010DC0AA1FBB1FEE1FFF1FA217B307F4
:1040C000E407F50720F0A21BB30BE40BF50B661F0A
:1040D000771F881F991F1A9469F7609570958095CE
:1040E00090959B01AC01BD01CF010895A29FB00145
:1040F000B39FC001A39F700D811D1124911DB29F1C
:10410000700D811D1124911D089597FB072E16F443
:10411000009407D077FD09D00E94231F07FC05D02B
:104120003EF4909581959F4F0895709561957F4FCE
:104130000895EE0FFF1F0590F491E02D09940F9361
:104140001F93CF93DF938230910510F482E090E0CB
:10415000E091AE05F091AF0520E030E0A0E0B0E0E6
:10416000309719F140815181028113814817590715
:10417000C8F08417950769F4109731F012960C93E4
:10418000129713961C9327C00093AE051093AF05AA
:1041900022C02115310519F04217530718F49A016E
:1041A000BD01EF01DF01F801DBCF21153105F9F089
:1041B000281B390B2430310580F48A819B816115DD
:1041C000710521F0FB019383828304C09093AF05B6
:1041D0008093AE05FE01329644C0FE01E20FF31F4C
:1041E0008193919322503109398328833AC02091D9
:1041F000AC053091AD05232B41F42091060130919F
:1042000007013093AD052093AC0520910401309156
:1042100005012115310541F42DB73EB74091080144
:1042200050910901241B350BE091AC05F091AD05CF
:10423000E217F307A0F42E1B3F0B2817390778F07D
:10424000AC014E5F5F4F2417350748F04E0F5F1FDC
:104250005093AD054093AC058193919302C0E0E08B
:10426000F0E0CF01DF91CF911F910F910895CF938F
:10427000DF93009709F481C0FC0132971382128208
:10428000A091AE05B091AF05109781F420813181E6
:10429000820F931F2091AC053091AD052817390787
:1042A00051F5F093AD05E093AC0567C0ED0120E05A
:1042B00030E0CE17DF0740F44A815B819E01411553
:1042C0005105F1F0EA01F5CFD383C28340815181DA
:1042D000840F951FC817D90759F488819981840FD5
:1042E000951F0296918380838A819B819383828329
:1042F0002115310529F4F093AF05E093AE053DC0DB
:10430000E901FB83EA8349915991C40FD51FEC174A
:10431000FD0761F480819181840F951F0296E90168
:1043200099838883828193819B838A83E0E0F0E094
:1043300012968D919C911397009719F0FD01DC0165
:10434000F7CF8D919C9111979D012E5F3F4F820F6A
:10435000931F2091AC053091AD052817390769F4FA
:10436000309729F41092AF051092AE0502C0138267
:104370001282B093AD05A093AC05DF91CF91089563
:10438000FB01DC0104C08D910190801921F44150A2
:0E4390005040C8F7881B990B0895F894FFCF92
:10439E00010000000000B00520006B0471010176E1
:1043AE001B981B791B230A1E0A1D0A200040224758
:1043BE006DCA01A8016101F4001C02350255026E9E
:1043CE000239447256372F343351476D0081828340
:1043DE00E200E900EA00B500B600B700CD008301A7
:1043EE00CC008A01920194012102230224022502AB
:0E43FE00260227022A02B300B4006F007000EE
:00000001FF
